{
  "contractName": "BondingCurve",
  "abi": [
    {
      "inputs": [
        {
          "internalType": "address",
          "name": "_DAO",
          "type": "address"
        }
      ],
      "stateMutability": "nonpayable",
      "type": "constructor"
    },
    {
      "anonymous": false,
      "inputs": [
        {
          "indexed": false,
          "internalType": "uint256",
          "name": "price",
          "type": "uint256"
        },
        {
          "indexed": false,
          "internalType": "uint256",
          "name": "reserveValue",
          "type": "uint256"
        }
      ],
      "name": "TestBuy",
      "type": "event"
    },
    {
      "inputs": [
        {
          "internalType": "address",
          "name": "",
          "type": "address"
        }
      ],
      "name": "asks",
      "outputs": [
        {
          "internalType": "uint256",
          "name": "",
          "type": "uint256"
        }
      ],
      "stateMutability": "view",
      "type": "function"
    },
    {
      "inputs": [],
      "name": "beneficiary",
      "outputs": [
        {
          "internalType": "address payable",
          "name": "",
          "type": "address"
        }
      ],
      "stateMutability": "view",
      "type": "function"
    },
    {
      "inputs": [],
      "name": "coefficient",
      "outputs": [
        {
          "internalType": "uint256",
          "name": "",
          "type": "uint256"
        }
      ],
      "stateMutability": "view",
      "type": "function"
    },
    {
      "inputs": [
        {
          "internalType": "address",
          "name": "",
          "type": "address"
        }
      ],
      "name": "contributions",
      "outputs": [
        {
          "internalType": "uint256",
          "name": "",
          "type": "uint256"
        }
      ],
      "stateMutability": "view",
      "type": "function"
    },
    {
      "inputs": [],
      "name": "currentSupply",
      "outputs": [
        {
          "internalType": "uint256",
          "name": "",
          "type": "uint256"
        }
      ],
      "stateMutability": "view",
      "type": "function"
    },
    {
      "inputs": [],
      "name": "exponent",
      "outputs": [
        {
          "internalType": "uint256",
          "name": "",
          "type": "uint256"
        }
      ],
      "stateMutability": "view",
      "type": "function"
    },
    {
      "inputs": [
        {
          "internalType": "address",
          "name": "",
          "type": "address"
        }
      ],
      "name": "ledger",
      "outputs": [
        {
          "internalType": "uint256",
          "name": "",
          "type": "uint256"
        }
      ],
      "stateMutability": "view",
      "type": "function"
    },
    {
      "inputs": [
        {
          "internalType": "address",
          "name": "",
          "type": "address"
        }
      ],
      "name": "locked",
      "outputs": [
        {
          "internalType": "uint256",
          "name": "",
          "type": "uint256"
        }
      ],
      "stateMutability": "view",
      "type": "function"
    },
    {
      "inputs": [],
      "name": "precision",
      "outputs": [
        {
          "internalType": "uint256",
          "name": "",
          "type": "uint256"
        }
      ],
      "stateMutability": "view",
      "type": "function"
    },
    {
      "inputs": [],
      "name": "reserveRatio",
      "outputs": [
        {
          "internalType": "uint256",
          "name": "",
          "type": "uint256"
        }
      ],
      "stateMutability": "view",
      "type": "function"
    },
    {
      "inputs": [],
      "name": "rhizome",
      "outputs": [
        {
          "internalType": "contract CcDAO",
          "name": "",
          "type": "address"
        }
      ],
      "stateMutability": "view",
      "type": "function"
    },
    {
      "inputs": [],
      "name": "totalContributed",
      "outputs": [
        {
          "internalType": "uint256",
          "name": "",
          "type": "uint256"
        }
      ],
      "stateMutability": "view",
      "type": "function"
    },
    {
      "inputs": [],
      "name": "totalLocked",
      "outputs": [
        {
          "internalType": "uint256",
          "name": "",
          "type": "uint256"
        }
      ],
      "stateMutability": "view",
      "type": "function"
    },
    {
      "inputs": [
        {
          "internalType": "uint256",
          "name": "amount",
          "type": "uint256"
        }
      ],
      "name": "buy",
      "outputs": [],
      "stateMutability": "payable",
      "type": "function"
    },
    {
      "inputs": [
        {
          "internalType": "uint256",
          "name": "amount",
          "type": "uint256"
        }
      ],
      "name": "sell",
      "outputs": [],
      "stateMutability": "nonpayable",
      "type": "function"
    },
    {
      "inputs": [
        {
          "internalType": "uint256",
          "name": "amount",
          "type": "uint256"
        }
      ],
      "name": "setBuyPrice",
      "outputs": [],
      "stateMutability": "nonpayable",
      "type": "function"
    },
    {
      "inputs": [],
      "name": "getPrice",
      "outputs": [
        {
          "internalType": "uint256",
          "name": "",
          "type": "uint256"
        }
      ],
      "stateMutability": "view",
      "type": "function"
    },
    {
      "inputs": [
        {
          "internalType": "uint256",
          "name": "amount",
          "type": "uint256"
        }
      ],
      "name": "setSellPrice",
      "outputs": [],
      "stateMutability": "nonpayable",
      "type": "function"
    },
    {
      "inputs": [
        {
          "internalType": "uint256",
          "name": "amount",
          "type": "uint256"
        }
      ],
      "name": "lockTokens",
      "outputs": [],
      "stateMutability": "nonpayable",
      "type": "function"
    },
    {
      "inputs": [
        {
          "internalType": "uint256",
          "name": "amount",
          "type": "uint256"
        }
      ],
      "name": "unlockTokens",
      "outputs": [],
      "stateMutability": "nonpayable",
      "type": "function"
    }
  ],
  "bytecode": "0x60806040523480156200001157600080fd5b5060405162001bfc38038062001bfc833981810160405260208110156200003757600080fd5b8101908080519060200190929190505050806000806101000a81548173ffffffffffffffffffffffffffffffffffffffff021916908373ffffffffffffffffffffffffffffffffffffffff16021790555080600160006101000a81548173ffffffffffffffffffffffffffffffffffffffff021916908373ffffffffffffffffffffffffffffffffffffffff16021790555060026009819055506305f5e100600a81905550620000f0600460056200010560201b60201c565b600b819055506001600281905550506200026b565b6000816200013e6200012685670de0b6b3a76400006200014f60201b60201c565b600285816200013157fe5b04620001e760201b60201c565b816200014657fe5b04905092915050565b6000808214806200016e57508282838502925082816200016b57fe5b04145b620001e1576040517f08c379a00000000000000000000000000000000000000000000000000000000081526004018080602001828103825260148152602001807f64732d6d6174682d6d756c2d6f766572666c6f7700000000000000000000000081525060200191505060405180910390fd5b92915050565b600082828401915081101562000265576040517f08c379a00000000000000000000000000000000000000000000000000000000081526004018080602001828103825260148152602001807f64732d6d6174682d6164642d6f766572666c6f7700000000000000000000000081525060200191505060405180910390fd5b92915050565b611981806200027b6000396000f3fe60806040526004361061011f5760003560e01c8063771282f6116100a0578063d3b5dc3b11610064578063d3b5dc3b146104df578063d96a094a1461050a578063e4849b3214610538578063fbfa941f14610573578063fc6634b9146105d85761011f565b8063771282f6146103925780637c405325146103bd57806398d5fdca146103f8578063cbf9fe5f14610423578063cff1f170146104885761011f565b806342e94c90116100e757806342e94c901461026157806352f6ee58146102c657806356891412146102f157806363ae8d6c1461031c5780636e27d889146103575761011f565b8063023f4147146101245780630c7d5cd81461014f5780631b9c515b1461017a5780632a1219d7146101a557806338af3eed1461020a575b600080fd5b34801561013057600080fd5b50610139610613565b6040518082815260200191505060405180910390f35b34801561015b57600080fd5b50610164610619565b6040518082815260200191505060405180910390f35b34801561018657600080fd5b5061018f61061f565b6040518082815260200191505060405180910390f35b3480156101b157600080fd5b506101f4600480360360208110156101c857600080fd5b81019080803573ffffffffffffffffffffffffffffffffffffffff169060200190929190505050610625565b6040518082815260200191505060405180910390f35b34801561021657600080fd5b5061021f61063d565b604051808273ffffffffffffffffffffffffffffffffffffffff1673ffffffffffffffffffffffffffffffffffffffff16815260200191505060405180910390f35b34801561026d57600080fd5b506102b06004803603602081101561028457600080fd5b81019080803573ffffffffffffffffffffffffffffffffffffffff169060200190929190505050610662565b6040518082815260200191505060405180910390f35b3480156102d257600080fd5b506102db61067a565b6040518082815260200191505060405180910390f35b3480156102fd57600080fd5b50610306610680565b6040518082815260200191505060405180910390f35b34801561032857600080fd5b506103556004803603602081101561033f57600080fd5b8101908080359060200190929190505050610686565b005b34801561036357600080fd5b506103906004803603602081101561037a57600080fd5b81019080803590602001909291905050506106db565b005b34801561039e57600080fd5b506103a7610b6f565b6040518082815260200191505060405180910390f35b3480156103c957600080fd5b506103f6600480360360208110156103e057600080fd5b8101908080359060200190929190505050610b75565b005b34801561040457600080fd5b5061040d611009565b6040518082815260200191505060405180910390f35b34801561042f57600080fd5b506104726004803603602081101561044657600080fd5b81019080803573ffffffffffffffffffffffffffffffffffffffff169060200190929190505050611050565b6040518082815260200191505060405180910390f35b34801561049457600080fd5b5061049d611068565b604051808273ffffffffffffffffffffffffffffffffffffffff1673ffffffffffffffffffffffffffffffffffffffff16815260200191505060405180910390f35b3480156104eb57600080fd5b506104f461108e565b6040518082815260200191505060405180910390f35b6105366004803603602081101561052057600080fd5b810190808035906020019092919050505061109a565b005b34801561054457600080fd5b506105716004803603602081101561055b57600080fd5b81019080803590602001909291905050506112ee565b005b34801561057f57600080fd5b506105c26004803603602081101561059657600080fd5b81019080803573ffffffffffffffffffffffffffffffffffffffff169060200190929190505050611504565b6040518082815260200191505060405180910390f35b3480156105e457600080fd5b50610611600480360360208110156105fb57600080fd5b810190808035906020019092919050505061151c565b005b60035481565b600b5481565b600a5481565b60086020528060005260406000206000915090505481565b6000809054906101000a900473ffffffffffffffffffffffffffffffffffffffff1681565b60076020528060005260406000206000915090505481565b60095481565b60045481565b600061069182611571565b905080600860003373ffffffffffffffffffffffffffffffffffffffff1673ffffffffffffffffffffffffffffffffffffffff168152602001908152602001600020819055505050565b600081116040518060400160405280601681526020017f416d6f756e74206d757374206265206e6f6e7a65726f00000000000000000000815250906107bb576040517f08c379a00000000000000000000000000000000000000000000000000000000081526004018080602001828103825283818151815260200191508051906020019080838360005b83811015610780578082015181840152602081019050610765565b50505050905090810190601f1680156107ad5780820380516001836020036101000a031916815260200191505b509250505060405180910390fd5b50600560003373ffffffffffffffffffffffffffffffffffffffff1673ffffffffffffffffffffffffffffffffffffffff168152602001908152602001600020548111156040518060400160405280601d81526020017f52657175657374206578636565647320746f6b656e2062616c616e6365000000815250906108db576040517f08c379a00000000000000000000000000000000000000000000000000000000081526004018080602001828103825283818151815260200191508051906020019080838360005b838110156108a0578082015181840152602081019050610885565b50505050905090810190601f1680156108cd5780820380516001836020036101000a031916815260200191505b509250505060405180910390fd5b506000610927600660003373ffffffffffffffffffffffffffffffffffffffff1673ffffffffffffffffffffffffffffffffffffffff16815260200190815260200160002054836115a5565b90506000610974600560003373ffffffffffffffffffffffffffffffffffffffff1673ffffffffffffffffffffffffffffffffffffffff1681526020019081526020016000205484611628565b905081600660003373ffffffffffffffffffffffffffffffffffffffff1673ffffffffffffffffffffffffffffffffffffffff1681526020019081526020016000208190555080600560003373ffffffffffffffffffffffffffffffffffffffff1673ffffffffffffffffffffffffffffffffffffffff16815260200190815260200160002081905550826004600082825401925050819055506000600160009054906101000a900473ffffffffffffffffffffffffffffffffffffffff1673ffffffffffffffffffffffffffffffffffffffff166347e7ef2433866040518363ffffffff1660e01b8152600401808373ffffffffffffffffffffffffffffffffffffffff1673ffffffffffffffffffffffffffffffffffffffff16815260200182815260200192505050602060405180830381600087803b158015610ab957600080fd5b505af1158015610acd573d6000803e3d6000fd5b505050506040513d6020811015610ae357600080fd5b8101908080519060200190929190505050905080610b69576040517f08c379a000000000000000000000000000000000000000000000000000000000815260040180806020018281038252601d8152602001807f44414f20636f6e74726163742072656a6563746564206465706f73697400000081525060200191505060405180910390fd5b50505050565b60025481565b600081116040518060400160405280601681526020017f416d6f756e74206d757374206265206e6f6e7a65726f0000000000000000000081525090610c55576040517f08c379a00000000000000000000000000000000000000000000000000000000081526004018080602001828103825283818151815260200191508051906020019080838360005b83811015610c1a578082015181840152602081019050610bff565b50505050905090810190601f168015610c475780820380516001836020036101000a031916815260200191505b509250505060405180910390fd5b50600660003373ffffffffffffffffffffffffffffffffffffffff1673ffffffffffffffffffffffffffffffffffffffff168152602001908152602001600020548111156040518060400160405280601d81526020017f52657175657374206578636565647320746f6b656e2062616c616e636500000081525090610d75576040517f08c379a00000000000000000000000000000000000000000000000000000000081526004018080602001828103825283818151815260200191508051906020019080838360005b83811015610d3a578082015181840152602081019050610d1f565b50505050905090810190601f168015610d675780820380516001836020036101000a031916815260200191505b509250505060405180910390fd5b506000610dc1600660003373ffffffffffffffffffffffffffffffffffffffff1673ffffffffffffffffffffffffffffffffffffffff1681526020019081526020016000205483611628565b90506000610e0e600560003373ffffffffffffffffffffffffffffffffffffffff1673ffffffffffffffffffffffffffffffffffffffff16815260200190815260200160002054846115a5565b905081600660003373ffffffffffffffffffffffffffffffffffffffff1673ffffffffffffffffffffffffffffffffffffffff1681526020019081526020016000208190555080600560003373ffffffffffffffffffffffffffffffffffffffff1673ffffffffffffffffffffffffffffffffffffffff16815260200190815260200160002081905550826004600082825403925050819055506000600160009054906101000a900473ffffffffffffffffffffffffffffffffffffffff1673ffffffffffffffffffffffffffffffffffffffff1663c606627233866040518363ffffffff1660e01b8152600401808373ffffffffffffffffffffffffffffffffffffffff1673ffffffffffffffffffffffffffffffffffffffff16815260200182815260200192505050602060405180830381600087803b158015610f5357600080fd5b505af1158015610f67573d6000803e3d6000fd5b505050506040513d6020811015610f7d57600080fd5b8101908080519060200190929190505050905080611003576040517f08c379a00000000000000000000000000000000000000000000000000000000081526004018080602001828103825260208152602001807f44414f20636f6e74726163742072656a6563746564207769746864726177616c81525060200191505060405180910390fd5b50505050565b6000600860003373ffffffffffffffffffffffffffffffffffffffff1673ffffffffffffffffffffffffffffffffffffffff16815260200190815260200160002054905090565b60066020528060005260406000206000915090505481565b600160009054906101000a900473ffffffffffffffffffffffffffffffffffffffff1681565b670de0b6b3a764000081565b60006110a582611571565b9050803410156040518060400160405280601281526020017f496e73756666696369656e74204574686572000000000000000000000000000081525090611187576040517f08c379a00000000000000000000000000000000000000000000000000000000081526004018080602001828103825283818151815260200191508051906020019080838360005b8381101561114c578082015181840152602081019050611131565b50505050905090810190601f1680156111795780820380516001836020036101000a031916815260200191505b509250505060405180910390fd5b50600061119634600b546116ab565b905060006111a43483611628565b90506000818334030390506000811115611200573373ffffffffffffffffffffffffffffffffffffffff166108fc829081150290604051600060405180830381858888f193505050501580156111fe573d6000803e3d6000fd5b505b611249600560003373ffffffffffffffffffffffffffffffffffffffff1673ffffffffffffffffffffffffffffffffffffffff16815260200190815260200160002054866115a5565b600560003373ffffffffffffffffffffffffffffffffffffffff1673ffffffffffffffffffffffffffffffffffffffff16815260200190815260200160002081905550611298600254866115a5565b6002819055507f9db794b647aceed8f8691811e64757035f4c54963a0d0d722f751f2b7e1b30438484604051808381526020018281526020019250505060405180910390a16112e782336116eb565b5050505050565b600560003373ffffffffffffffffffffffffffffffffffffffff1673ffffffffffffffffffffffffffffffffffffffff168152602001908152602001600020548111156040518060400160405280601d81526020017f52657175657374206578636565647320746f6b656e2062616c616e63650000008152509061140d576040517f08c379a00000000000000000000000000000000000000000000000000000000081526004018080602001828103825283818151815260200191508051906020019080838360005b838110156113d25780820151818401526020810190506113b7565b50505050905090810190601f1680156113ff5780820380516001836020036101000a031916815260200191505b509250505060405180910390fd5b506000611419826117f5565b90503373ffffffffffffffffffffffffffffffffffffffff166108fc829081150290604051600060405180830381858888f19350505050158015611461573d6000803e3d6000fd5b506114ab600560003373ffffffffffffffffffffffffffffffffffffffff1673ffffffffffffffffffffffffffffffffffffffff1681526020019081526020016000205483611628565b600560003373ffffffffffffffffffffffffffffffffffffffff1673ffffffffffffffffffffffffffffffffffffffff168152602001908152602001600020819055506114fa60025483611628565b6002819055505050565b60056020528060005260406000206000915090505481565b6000611527826117f5565b905080600860003373ffffffffffffffffffffffffffffffffffffffff1673ffffffffffffffffffffffffffffffffffffffff168152602001908152602001600020819055505050565b600080611580600254846115a5565b9050600061159960025483670de0b6b3a7640000611823565b90508092505050919050565b6000828284019150811015611622576040517f08c379a00000000000000000000000000000000000000000000000000000000081526004018080602001828103825260148152602001807f64732d6d6174682d6164642d6f766572666c6f7700000000000000000000000081525060200191505060405180910390fd5b92915050565b60008282840391508111156116a5576040517f08c379a00000000000000000000000000000000000000000000000000000000081526004018080602001828103825260158152602001807f64732d6d6174682d7375622d756e646572666c6f77000000000000000000000081525060200191505060405180910390fd5b92915050565b6000670de0b6b3a76400006116db6116c3858561187e565b6002670de0b6b3a7640000816116d557fe5b046115a5565b816116e257fe5b04905092915050565b6000809054906101000a900473ffffffffffffffffffffffffffffffffffffffff1673ffffffffffffffffffffffffffffffffffffffff166108fc839081150290604051600060405180830381858888f19350505050158015611752573d6000803e3d6000fd5b5061179c600760008373ffffffffffffffffffffffffffffffffffffffff1673ffffffffffffffffffffffffffffffffffffffff16815260200190815260200160002054836115a5565b600760008373ffffffffffffffffffffffffffffffffffffffff1673ffffffffffffffffffffffffffffffffffffffff168152602001908152602001600020819055506117eb600354836115a5565b6003819055505050565b60008061180460025484611628565b9050600061181782600254600b54611823565b90508092505050919050565b6000806001600954019050600061183c600a54856116ab565b9050600061184c83870a84611913565b9050600061185c84890a85611913565b90506118718361186c8484611628565b6116ab565b9450505050509392505050565b60008082148061189b575082828385029250828161189857fe5b04145b61190d576040517f08c379a00000000000000000000000000000000000000000000000000000000081526004018080602001828103825260148152602001807f64732d6d6174682d6d756c2d6f766572666c6f7700000000000000000000000081525060200191505060405180910390fd5b92915050565b60008161193b61192b85670de0b6b3a764000061187e565b6002858161193557fe5b046115a5565b8161194257fe5b0490509291505056fea2646970667358221220fb6924b67f9afd7bc0aff26d80024da0a28c08067e5f54b014bddb2b8480226564736f6c63430006040033",
  "source": "pragma solidity ^0.6.4;\n\nimport \"./CcDAO.sol\";\nimport \"./DSMath.sol\";\n\ncontract BondingCurve is DSMath {\n    address payable public beneficiary;\n    CcDAO public rhizome;\n    uint public currentSupply;\n    uint public totalContributed;\n    uint public totalLocked;\n    mapping (address => uint) public ledger;\n    mapping (address => uint) public locked;\n    mapping (address => uint) public contributions;\n    mapping (address => uint) public asks;\n\n    uint public exponent;\n    uint public coefficient;\n    uint public reserveRatio;\n    \n    uint public constant precision = 1000000000000000000;\n\n    string internal constant INSUFFICIENT_ETH = 'Insufficient Ether';\n    string internal constant INSUFFICIENT_TOKENS = 'Request exceeds token balance';\n    string internal constant INVALID_ADDRESS = 'Wallet does not exist';\n    string internal constant ZERO_AMOUNT = \"Amount must be nonzero\";\n    string internal constant TOKENS_LOCKED = \"Vesting period for this stake has not elapsed\";\n\n    event TestBuy(uint price, uint reserveValue);\n\n    constructor(\n        address _DAO\n    )\n    public {\n        beneficiary = payable(_DAO);\n        rhizome = CcDAO(_DAO);\n        exponent = 2;\n        coefficient = 100000000;\n        reserveRatio = wdiv(4, 5);\n        currentSupply = 1;\n    }\n    \n    function buy(uint amount)\n    external payable {\n        uint price = calcMintPrice(amount);\n        require(msg.value >= price, INSUFFICIENT_ETH);\n        uint reserveValue = wmul(msg.value, reserveRatio);\n        uint contributionValue = sub(msg.value, reserveValue);\n        uint refund = msg.value - reserveValue - contributionValue;\n        if (refund > 0) {\n            msg.sender.transfer(refund);\n        }\n        ledger[msg.sender] = add(ledger[msg.sender], amount);\n        currentSupply = add(currentSupply, amount);\n        emit TestBuy(price, reserveValue);\n        contribute(contributionValue, msg.sender);\n    }\n\n    function sell(uint amount)\n    external {\n        require(amount <= ledger[msg.sender], INSUFFICIENT_TOKENS);\n        uint exitValue = calcBurnReward(amount);\n        msg.sender.transfer(exitValue);\n        ledger[msg.sender] = sub(ledger[msg.sender], amount);\n        currentSupply = sub(currentSupply, amount);\n    }\n\n    // function lovequit()\n    // external {\n    //     require(ledger[msg.sender] > 0, INVALID_ADDRESS);\n    //     uint holdings = ledger[msg.sender];\n    //     uint exitValue = calcBurnReward(holdings);\n    //     currentSupply = sub(currentSupply, holdings);\n    //     contribute(exitValue, msg.sender);\n    //     ledger[msg.sender] = 0;\n    // }\n\n    function contribute(uint amount, address sender)\n    internal {\n        beneficiary.transfer(amount);\n        contributions[sender] = add(contributions[sender], amount);\n        totalContributed = add(totalContributed, amount);\n    }\n\n    function setBuyPrice(uint amount)\n    public {\n        uint price = calcMintPrice(amount);\n        asks[msg.sender] = price;\n    }\n    \n    function getPrice()\n    public view returns (uint) {\n        return asks[msg.sender];\n    }\n    \n    function setSellPrice(uint amount)\n    public {\n        uint price = calcBurnReward(amount);\n        asks[msg.sender] = price;\n    }\n\n    function integrate(uint limitA, uint limitB, uint multiplier)\n    internal returns (uint) {\n        uint raiseExp = exponent + 1;\n        uint _coefficient = wmul(coefficient, multiplier);\n        uint upper = wdiv((limitB ** raiseExp), raiseExp);\n        uint lower = wdiv((limitA ** raiseExp), raiseExp);\n        return wmul(_coefficient, (sub(upper, lower)));\n    }\n    \n    function calcMintPrice(uint amount)\n    internal returns (uint) {\n        uint newSupply = add(currentSupply, amount);\n        uint result = integrate(currentSupply, newSupply, precision);\n        return result;\n    }\n\n    function calcBurnReward(uint amount)\n    internal returns (uint) {\n        uint newSupply = sub(currentSupply, amount);\n        uint result = integrate(newSupply, currentSupply, reserveRatio);\n        return result;\n    }\n\n    function lockTokens(uint amount)\n    external {\n        require(amount > 0, ZERO_AMOUNT);\n        require(amount <= ledger[msg.sender], INSUFFICIENT_TOKENS);\n        uint newLockBalance = add(locked[msg.sender], amount);\n        uint newLedgerBalance = sub(ledger[msg.sender], amount);\n        locked[msg.sender] = newLockBalance;\n        ledger[msg.sender] = newLedgerBalance;\n        totalLocked += amount;\n        bool success = rhizome.deposit(msg.sender, amount);\n        if (!success) {\n            revert(\"DAO contract rejected deposit\");\n        }\n    }\n\n    function unlockTokens(uint256 amount)\n    external {\n        require(amount > 0, ZERO_AMOUNT);\n        require(amount <= locked[msg.sender], INSUFFICIENT_TOKENS);\n        uint newLockBalance = sub(locked[msg.sender], amount);\n        uint newLedgerBalance = add(ledger[msg.sender], amount);\n        locked[msg.sender] = newLockBalance;\n        ledger[msg.sender] = newLedgerBalance;\n        totalLocked -= amount;\n        bool success = rhizome.withdrawStake(msg.sender, amount);\n        if (!success) {\n            revert(\"DAO contract rejected withdrawal\");\n        }\n    }\n}",
  "sourcePath": "/home/armitage/code/rhizome-factory/contracts/BondingCurve.sol",
  "compiler": {
    "name": "solc",
    "version": "0.6.4+commit.1dca32f3.Emscripten.clang"
  },
  "schemaVersion": "3.1.0",
  "updatedAt": "2020-04-26T12:37:42.348Z",
  "devdoc": {
    "methods": {}
  },
  "userdoc": {
    "methods": {}
  }
}