{
  "contractName": "CcDAO",
  "abi": [
    {
      "inputs": [
        {
          "internalType": "string",
          "name": "_name",
          "type": "string"
        },
        {
          "internalType": "address",
          "name": "_creator",
          "type": "address"
        }
      ],
      "stateMutability": "nonpayable",
      "type": "constructor"
    },
    {
      "stateMutability": "nonpayable",
      "type": "fallback"
    },
    {
      "inputs": [],
      "name": "ELIGIBLE_UNIT",
      "outputs": [
        {
          "internalType": "uint256",
          "name": "",
          "type": "uint256"
        }
      ],
      "stateMutability": "view",
      "type": "function"
    },
    {
      "inputs": [],
      "name": "RhizomeRewards",
      "outputs": [
        {
          "internalType": "contract TokenTemplate",
          "name": "",
          "type": "address"
        }
      ],
      "stateMutability": "view",
      "type": "function"
    },
    {
      "inputs": [],
      "name": "creator",
      "outputs": [
        {
          "internalType": "address",
          "name": "",
          "type": "address"
        }
      ],
      "stateMutability": "view",
      "type": "function"
    },
    {
      "inputs": [],
      "name": "name",
      "outputs": [
        {
          "internalType": "string",
          "name": "",
          "type": "string"
        }
      ],
      "stateMutability": "view",
      "type": "function"
    },
    {
      "inputs": [
        {
          "internalType": "address",
          "name": "_project",
          "type": "address"
        },
        {
          "internalType": "uint256",
          "name": "amount",
          "type": "uint256"
        }
      ],
      "name": "addProject",
      "outputs": [],
      "stateMutability": "nonpayable",
      "type": "function"
    },
    {
      "inputs": [
        {
          "internalType": "address",
          "name": "_project",
          "type": "address"
        },
        {
          "internalType": "uint256",
          "name": "amount",
          "type": "uint256"
        }
      ],
      "name": "updateAllocation",
      "outputs": [],
      "stateMutability": "nonpayable",
      "type": "function"
    },
    {
      "inputs": [
        {
          "internalType": "address",
          "name": "_project",
          "type": "address"
        }
      ],
      "name": "validate",
      "outputs": [],
      "stateMutability": "nonpayable",
      "type": "function"
    },
    {
      "inputs": [
        {
          "internalType": "address",
          "name": "_project",
          "type": "address"
        }
      ],
      "name": "kickProject",
      "outputs": [],
      "stateMutability": "nonpayable",
      "type": "function"
    },
    {
      "inputs": [
        {
          "internalType": "address",
          "name": "_admin",
          "type": "address"
        }
      ],
      "name": "addFacilitator",
      "outputs": [],
      "stateMutability": "nonpayable",
      "type": "function"
    },
    {
      "inputs": [
        {
          "internalType": "address",
          "name": "staker",
          "type": "address"
        },
        {
          "internalType": "uint256",
          "name": "tokens",
          "type": "uint256"
        }
      ],
      "name": "deposit",
      "outputs": [
        {
          "internalType": "bool",
          "name": "success",
          "type": "bool"
        }
      ],
      "stateMutability": "nonpayable",
      "type": "function"
    },
    {
      "inputs": [],
      "name": "withdrawReward",
      "outputs": [],
      "stateMutability": "nonpayable",
      "type": "function"
    },
    {
      "inputs": [
        {
          "internalType": "address",
          "name": "staker",
          "type": "address"
        },
        {
          "internalType": "uint256",
          "name": "tokens",
          "type": "uint256"
        }
      ],
      "name": "withdrawStake",
      "outputs": [
        {
          "internalType": "bool",
          "name": "",
          "type": "bool"
        }
      ],
      "stateMutability": "nonpayable",
      "type": "function"
    },
    {
      "inputs": [
        {
          "internalType": "address",
          "name": "staker",
          "type": "address"
        }
      ],
      "name": "withdrawAllStake",
      "outputs": [
        {
          "internalType": "bool",
          "name": "",
          "type": "bool"
        }
      ],
      "stateMutability": "nonpayable",
      "type": "function"
    },
    {
      "inputs": [],
      "name": "getStakeTotal",
      "outputs": [
        {
          "internalType": "uint256",
          "name": "",
          "type": "uint256"
        }
      ],
      "stateMutability": "view",
      "type": "function"
    },
    {
      "inputs": [
        {
          "internalType": "address",
          "name": "staker",
          "type": "address"
        }
      ],
      "name": "getStake",
      "outputs": [
        {
          "internalType": "uint256",
          "name": "tokens",
          "type": "uint256"
        }
      ],
      "stateMutability": "view",
      "type": "function"
    },
    {
      "inputs": [
        {
          "internalType": "address",
          "name": "staker",
          "type": "address"
        }
      ],
      "name": "getReward",
      "outputs": [
        {
          "internalType": "uint256",
          "name": "tokens",
          "type": "uint256"
        }
      ],
      "stateMutability": "view",
      "type": "function"
    }
  ],
  "bytecode": "0x60806040523480156200001157600080fd5b506040516200591438038062005914833981810160405260408110156200003757600080fd5b81019080805160405193929190846401000000008211156200005857600080fd5b838201915060208201858111156200006f57600080fd5b82518660018202830111640100000000821117156200008d57600080fd5b8083526020830192505050908051906020019080838360005b83811015620000c3578082015181840152602081019050620000a6565b50505050905090810190601f168015620000f15780820380516001836020036101000a031916815260200191505b50604052602001805190602001909291905050506060829050600081511162000182576040517f08c379a00000000000000000000000000000000000000000000000000000000081526004018080602001828103825260188152602001807f44414f204e616d652063616e6e6f7420626520656d707479000000000000000081525060200191505060405180910390fd5b82600090805190602001906200019a929190620003ea565b5081600160006101000a81548173ffffffffffffffffffffffffffffffffffffffff021916908373ffffffffffffffffffffffffffffffffffffffff16021790555060006009819055506000600a819055506000600b81905550602860036000600160009054906101000a900473ffffffffffffffffffffffffffffffffffffffff1673ffffffffffffffffffffffffffffffffffffffff1673ffffffffffffffffffffffffffffffffffffffff168152602001908152602001600020819055506000336040516200026c9062000471565b8080602001806020018581526020018473ffffffffffffffffffffffffffffffffffffffff1673ffffffffffffffffffffffffffffffffffffffff168152602001838103835260078152602001807f5268697a6f6d6500000000000000000000000000000000000000000000000000815250602001838103825260038152602001807f5248520000000000000000000000000000000000000000000000000000000000815250602001945050505050604051809103906000f08015801562000338573d6000803e3d6000fd5b50600260006101000a81548173ffffffffffffffffffffffffffffffffffffffff021916908373ffffffffffffffffffffffffffffffffffffffff1602179055506000306040516200038a906200047f565b808273ffffffffffffffffffffffffffffffffffffffff1673ffffffffffffffffffffffffffffffffffffffff168152602001915050604051809103906000f080158015620003dd573d6000803e3d6000fd5b50905050505050620004b5565b828054600181600116156101000203166002900490600052602060002090601f016020900481019282601f106200042d57805160ff19168380011785556200045e565b828001600101855582156200045e579182015b828111156200045d57825182559160200191906001019062000440565b5b5090506200046d91906200048d565b5090565b611ac2806200229483390190565b611bbe8062003d5683390190565b620004b291905b80821115620004ae57600081600090555060010162000494565b5090565b90565b611dcf80620004c56000396000f3fe608060405234801561001057600080fd5b50600436106101045760003560e01c80637085170311610097578063c00007b011610066578063c00007b014610498578063c6066272146104f0578063c885bc5814610556578063ca3a1a031461056057610105565b8063708517031461034c5780637a7664601461039a5780637fa0cace146103f2578063849571911461043c57610105565b806347e7ef24116100d357806347e7ef24146102365780634d1158d11461029c57806353a7bec8146102e05780635735189e1461032e57610105565b806302d05d3f1461010757806306fdde03146101515780631f5726d9146101d4578063207c64fb146101f257610105565b5b005b61010f6105a4565b604051808273ffffffffffffffffffffffffffffffffffffffff1673ffffffffffffffffffffffffffffffffffffffff16815260200191505060405180910390f35b6101596105ca565b6040518080602001828103825283818151815260200191508051906020019080838360005b8381101561019957808201518184015260208101905061017e565b50505050905090810190601f1680156101c65780820380516001836020036101000a031916815260200191505b509250505060405180910390f35b6101dc610668565b6040518082815260200191505060405180910390f35b6102346004803603602081101561020857600080fd5b81019080803573ffffffffffffffffffffffffffffffffffffffff169060200190929190505050610670565b005b6102826004803603604081101561024c57600080fd5b81019080803573ffffffffffffffffffffffffffffffffffffffff1690602001909291908035906020019092919050505061083d565b604051808215151515815260200191505060405180910390f35b6102de600480360360208110156102b257600080fd5b81019080803573ffffffffffffffffffffffffffffffffffffffff169060200190929190505050610a16565b005b61032c600480360360408110156102f657600080fd5b81019080803573ffffffffffffffffffffffffffffffffffffffff16906020019092919080359060200190929190505050610a5e565b005b610336610ccf565b6040518082815260200191505060405180910390f35b6103986004803603604081101561036257600080fd5b81019080803573ffffffffffffffffffffffffffffffffffffffff16906020019092919080359060200190929190505050610cef565b005b6103dc600480360360208110156103b057600080fd5b81019080803573ffffffffffffffffffffffffffffffffffffffff169060200190929190505050610f1b565b6040518082815260200191505060405180910390f35b6103fa610fce565b604051808273ffffffffffffffffffffffffffffffffffffffff1673ffffffffffffffffffffffffffffffffffffffff16815260200191505060405180910390f35b61047e6004803603602081101561045257600080fd5b81019080803573ffffffffffffffffffffffffffffffffffffffff169060200190929190505050610ff4565b604051808215151515815260200191505060405180910390f35b6104da600480360360208110156104ae57600080fd5b81019080803573ffffffffffffffffffffffffffffffffffffffff169060200190929190505050611014565b6040518082815260200191505060405180910390f35b61053c6004803603604081101561050657600080fd5b81019080803573ffffffffffffffffffffffffffffffffffffffff169060200190929190803590602001909291905050506110ba565b604051808215151515815260200191505060405180910390f35b61055e611387565b005b6105a26004803603602081101561057657600080fd5b81019080803573ffffffffffffffffffffffffffffffffffffffff1690602001909291905050506114ef565b005b600160009054906101000a900473ffffffffffffffffffffffffffffffffffffffff1681565b60008054600181600116156101000203166002900480601f0160208091040260200160405190810160405280929190818152602001828054600181600116156101000203166002900480156106605780601f1061063557610100808354040283529160200191610660565b820191906000526020600020905b81548152906001019060200180831161064357829003601f168201915b505050505081565b633b9aca0081565b601e600360008373ffffffffffffffffffffffffffffffffffffffff1673ffffffffffffffffffffffffffffffffffffffff1681526020019081526020016000205414610725576040517f08c379a000000000000000000000000000000000000000000000000000000000815260040180806020018281038252600e8152602001807f496e76616c69642074617267657400000000000000000000000000000000000081525060200191505060405180910390fd5b6000600560008373ffffffffffffffffffffffffffffffffffffffff1673ffffffffffffffffffffffffffffffffffffffff1681526020019081526020016000205490506107728161186d565b50600560008373ffffffffffffffffffffffffffffffffffffffff1673ffffffffffffffffffffffffffffffffffffffff16815260200190815260200160002054600660008473ffffffffffffffffffffffffffffffffffffffff1673ffffffffffffffffffffffffffffffffffffffff16815260200190815260200160002081905550600560008373ffffffffffffffffffffffffffffffffffffffff1673ffffffffffffffffffffffffffffffffffffffff168152602001908152602001600020600090555050565b600080610892600860008673ffffffffffffffffffffffffffffffffffffffff1673ffffffffffffffffffffffffffffffffffffffff16815260200190815260200160002054846118f990919063ffffffff16565b905060006108ad633b9aca008361198190919063ffffffff16565b90506108c6633b9aca00836119cb90919063ffffffff16565b600860003373ffffffffffffffffffffffffffffffffffffffff1673ffffffffffffffffffffffffffffffffffffffff1681526020019081526020016000208190555061095b81600760008873ffffffffffffffffffffffffffffffffffffffff1673ffffffffffffffffffffffffffffffffffffffff168152602001908152602001600020546118f990919063ffffffff16565b600760008773ffffffffffffffffffffffffffffffffffffffff1673ffffffffffffffffffffffffffffffffffffffff168152602001908152602001600020819055506109b3816009546118f990919063ffffffff16565b60098190555080600a5402600c60008773ffffffffffffffffffffffffffffffffffffffff1673ffffffffffffffffffffffffffffffffffffffff1681526020019081526020016000206000828254019250508190555060019250505092915050565b6028600360008373ffffffffffffffffffffffffffffffffffffffff1673ffffffffffffffffffffffffffffffffffffffff1681526020019081526020016000208190555050565b6028600360003373ffffffffffffffffffffffffffffffffffffffff1673ffffffffffffffffffffffffffffffffffffffff16815260200190815260200160002054146040518060400160405280602081526020017f416374696f6e2072657175697265732061646d696e2070726976696c6567657381525090610b7d576040517f08c379a00000000000000000000000000000000000000000000000000000000081526004018080602001828103825283818151815260200191508051906020019080838360005b83811015610b42578082015181840152602081019050610b27565b50505050905090810190601f168015610b6f5780820380516001836020036101000a031916815260200191505b509250505060405180910390fd5b5047811115604051806060016040528060228152602001611d576022913990610c41576040517f08c379a00000000000000000000000000000000000000000000000000000000081526004018080602001828103825283818151815260200191508051906020019080838360005b83811015610c06578082015181840152602081019050610beb565b50505050905090810190601f168015610c335780820380516001836020036101000a031916815260200191505b509250505060405180910390fd5b506014600360008473ffffffffffffffffffffffffffffffffffffffff1673ffffffffffffffffffffffffffffffffffffffff1681526020019081526020016000208190555080600460008473ffffffffffffffffffffffffffffffffffffffff1673ffffffffffffffffffffffffffffffffffffffff168152602001908152602001600020819055505050565b6000610cea633b9aca00600954611a1590919063ffffffff16565b905090565b6028600360003373ffffffffffffffffffffffffffffffffffffffff1673ffffffffffffffffffffffffffffffffffffffff16815260200190815260200160002054146040518060400160405280602081526020017f416374696f6e2072657175697265732061646d696e2070726976696c6567657381525090610e0e576040517f08c379a00000000000000000000000000000000000000000000000000000000081526004018080602001828103825283818151815260200191508051906020019080838360005b83811015610dd3578082015181840152602081019050610db8565b50505050905090810190601f168015610e005780820380516001836020036101000a031916815260200191505b509250505060405180910390fd5b5047811115604051806060016040528060228152602001611d576022913990610ed2576040517f08c379a00000000000000000000000000000000000000000000000000000000081526004018080602001828103825283818151815260200191508051906020019080838360005b83811015610e97578082015181840152602081019050610e7c565b50505050905090810190601f168015610ec45780820380516001836020036101000a031916815260200191505b509250505060405180910390fd5b5080600460008473ffffffffffffffffffffffffffffffffffffffff1673ffffffffffffffffffffffffffffffffffffffff168152602001908152602001600020819055505050565b6000610fc4600860008473ffffffffffffffffffffffffffffffffffffffff1673ffffffffffffffffffffffffffffffffffffffff16815260200190815260200160002054610fb6633b9aca00600760008773ffffffffffffffffffffffffffffffffffffffff1673ffffffffffffffffffffffffffffffffffffffff16815260200190815260200160002054611a1590919063ffffffff16565b6118f990919063ffffffff16565b9050809050919050565b600260009054906101000a900473ffffffffffffffffffffffffffffffffffffffff1681565b60008061100083610f1b565b905061100c83826110ba565b915050919050565b600080600c60008473ffffffffffffffffffffffffffffffffffffffff1673ffffffffffffffffffffffffffffffffffffffff168152602001908152602001600020546110ab600a54600760008773ffffffffffffffffffffffffffffffffffffffff1673ffffffffffffffffffffffffffffffffffffffff16815260200190815260200160002054611a1590919063ffffffff16565b03905080915081915050919050565b6000806110c684610f1b565b9050808311156040518060600160405280602a8152602001611d2d602a91399061118b576040517f08c379a00000000000000000000000000000000000000000000000000000000081526004018080602001828103825283818151815260200191508051906020019080838360005b83811015611150578082015181840152602081019050611135565b50505050905090810190601f16801561117d5780820380516001836020036101000a031916815260200191505b509250505060405180910390fd5b5060006111a18483611a9b90919063ffffffff16565b90506111ba633b9aca00826119cb90919063ffffffff16565b600860008773ffffffffffffffffffffffffffffffffffffffff1673ffffffffffffffffffffffffffffffffffffffff168152602001908152602001600020819055506000611267611219633b9aca008461198190919063ffffffff16565b600760008973ffffffffffffffffffffffffffffffffffffffff1673ffffffffffffffffffffffffffffffffffffffff16815260200190815260200160002054611a9b90919063ffffffff16565b90506112bb81600760008973ffffffffffffffffffffffffffffffffffffffff1673ffffffffffffffffffffffffffffffffffffffff16815260200190815260200160002054611a9b90919063ffffffff16565b600760008873ffffffffffffffffffffffffffffffffffffffff1673ffffffffffffffffffffffffffffffffffffffff1681526020019081526020016000208190555061131381600954611a9b90919063ffffffff16565b60098190555061132e81600a54611a1590919063ffffffff16565b600c60008873ffffffffffffffffffffffffffffffffffffffff1673ffffffffffffffffffffffffffffffffffffffff168152602001908152602001600020600082825403925050819055506001935050505092915050565b600061139233611014565b90506113e8600760003373ffffffffffffffffffffffffffffffffffffffff1673ffffffffffffffffffffffffffffffffffffffff16815260200190815260200160002054600a54611a1590919063ffffffff16565b600c60003373ffffffffffffffffffffffffffffffffffffffff1673ffffffffffffffffffffffffffffffffffffffff16815260200190815260200160002081905550600260009054906101000a900473ffffffffffffffffffffffffffffffffffffffff1673ffffffffffffffffffffffffffffffffffffffff166340c10f1933836040518363ffffffff1660e01b8152600401808373ffffffffffffffffffffffffffffffffffffffff1673ffffffffffffffffffffffffffffffffffffffff16815260200182815260200192505050600060405180830381600087803b1580156114d457600080fd5b505af11580156114e8573d6000803e3d6000fd5b5050505050565b6000600360008373ffffffffffffffffffffffffffffffffffffffff1673ffffffffffffffffffffffffffffffffffffffff16815260200190815260200160002054116040518060400160405280601081526020017f456e74697479206e6f7420666f756e64000000000000000000000000000000008152509061160e576040517f08c379a00000000000000000000000000000000000000000000000000000000081526004018080602001828103825283818151815260200191508051906020019080838360005b838110156115d35780820151818401526020810190506115b8565b50505050905090810190601f1680156116005780820380516001836020036101000a031916815260200191505b509250505060405180910390fd5b50601e600360008373ffffffffffffffffffffffffffffffffffffffff1673ffffffffffffffffffffffffffffffffffffffff16815260200190815260200160002054106116c4576040517f08c379a000000000000000000000000000000000000000000000000000000000815260040180806020018281038252601f8152602001807f50726f6a6563742068617320616c7265616479206265656e2066756e6465640081525060200191505060405180910390fd5b6014600360003373ffffffffffffffffffffffffffffffffffffffff1673ffffffffffffffffffffffffffffffffffffffff16815260200190815260200160002054116040518060400160405280602081526020017f416374696f6e2072657175697265732061646d696e2070726976696c65676573815250906117e3576040517f08c379a00000000000000000000000000000000000000000000000000000000081526004018080602001828103825283818151815260200191508051906020019080838360005b838110156117a857808201518184015260208101905061178d565b50505050905090810190601f1680156117d55780820380516001836020036101000a031916815260200191505b509250505060405180910390fd5b50600360008273ffffffffffffffffffffffffffffffffffffffff1673ffffffffffffffffffffffffffffffffffffffff16815260200190815260200160002060009055600460008273ffffffffffffffffffffffffffffffffffffffff1673ffffffffffffffffffffffffffffffffffffffff1681526020019081526020016000206000905550565b600080611885600b54846118f990919063ffffffff16565b90506000600954141561189e5780600b819055506118ef565b60006118b56009548361198190919063ffffffff16565b90506118cc600954836119cb90919063ffffffff16565b600b819055506118e781600a546118f990919063ffffffff16565b600a81905550505b6001915050919050565b600080828401905083811015611977576040517f08c379a000000000000000000000000000000000000000000000000000000000815260040180806020018281038252601b8152602001807f536166654d6174683a206164646974696f6e206f766572666c6f77000000000081525060200191505060405180910390fd5b8091505092915050565b60006119c383836040518060400160405280601a81526020017f536166654d6174683a206469766973696f6e206279207a65726f000000000000815250611ae5565b905092915050565b6000611a0d83836040518060400160405280601881526020017f536166654d6174683a206d6f64756c6f206279207a65726f0000000000000000815250611bab565b905092915050565b600080831415611a285760009050611a95565b6000828402905082848281611a3957fe5b0414611a90576040517f08c379a0000000000000000000000000000000000000000000000000000000008152600401808060200182810382526021815260200180611d796021913960400191505060405180910390fd5b809150505b92915050565b6000611add83836040518060400160405280601e81526020017f536166654d6174683a207375627472616374696f6e206f766572666c6f770000815250611c6c565b905092915050565b60008083118290611b91576040517f08c379a00000000000000000000000000000000000000000000000000000000081526004018080602001828103825283818151815260200191508051906020019080838360005b83811015611b56578082015181840152602081019050611b3b565b50505050905090810190601f168015611b835780820380516001836020036101000a031916815260200191505b509250505060405180910390fd5b506000838581611b9d57fe5b049050809150509392505050565b6000808314158290611c58576040517f08c379a00000000000000000000000000000000000000000000000000000000081526004018080602001828103825283818151815260200191508051906020019080838360005b83811015611c1d578082015181840152602081019050611c02565b50505050905090810190601f168015611c4a5780820380516001836020036101000a031916815260200191505b509250505060405180910390fd5b50828481611c6257fe5b0690509392505050565b6000838311158290611d19576040517f08c379a00000000000000000000000000000000000000000000000000000000081526004018080602001828103825283818151815260200191508051906020019080838360005b83811015611cde578082015181840152602081019050611cc3565b50505050905090810190601f168015611d0b5780820380516001836020036101000a031916815260200191505b509250505060405180910390fd5b506000838503905080915050939250505056fe5769746864726177616c206578636565647320616d6f756e74206f6620746f6b656e73206c6f636b6564416c6c6f636174696f6e206578636565647320617661696c61626c652066756e6473536166654d6174683a206d756c7469706c69636174696f6e206f766572666c6f77a26469706673582212205cca00210b6d21a8238684c23aabb42a9d4dd90a98a87c0d52bcce8ae543b1ca64736f6c6343000604003360806040523480156200001157600080fd5b5060405162001ac238038062001ac2833981810160405260808110156200003757600080fd5b81019080805160405193929190846401000000008211156200005857600080fd5b838201915060208201858111156200006f57600080fd5b82518660018202830111640100000000821117156200008d57600080fd5b8083526020830192505050908051906020019080838360005b83811015620000c3578082015181840152602081019050620000a6565b50505050905090810190601f168015620000f15780820380516001836020036101000a031916815260200191505b50604052602001805160405193929190846401000000008211156200011557600080fd5b838201915060208201858111156200012c57600080fd5b82518660018202830111640100000000821117156200014a57600080fd5b8083526020830192505050908051906020019080838360005b838110156200018057808201518184015260208101905062000163565b50505050905090810190601f168015620001ae5780820380516001836020036101000a031916815260200191505b50604052602001805190602001909291908051906020019092919050505083838160039080519060200190620001e692919062000596565b508060049080519060200190620001ff92919062000596565b506012600560006101000a81548160ff021916908360ff1602179055505050600073ffffffffffffffffffffffffffffffffffffffff168173ffffffffffffffffffffffffffffffffffffffff161415620002c2576040517f08c379a00000000000000000000000000000000000000000000000000000000081526004018080602001828103825260158152602001807f4f776e6572206d75737420626520646566696e6564000000000000000000000081525060200191505060405180910390fd5b6000821115620002df57620002de81836200032a60201b60201c565b5b80600560016101000a81548173ffffffffffffffffffffffffffffffffffffffff021916908373ffffffffffffffffffffffffffffffffffffffff1602179055505050505062000645565b600073ffffffffffffffffffffffffffffffffffffffff168273ffffffffffffffffffffffffffffffffffffffff161415620003ce576040517f08c379a000000000000000000000000000000000000000000000000000000000815260040180806020018281038252601f8152602001807f45524332303a206d696e7420746f20746865207a65726f20616464726573730081525060200191505060405180910390fd5b620003e2600083836200050860201b60201c565b620003fe816002546200050d60201b620010e21790919060201c565b6002819055506200045c816000808573ffffffffffffffffffffffffffffffffffffffff1673ffffffffffffffffffffffffffffffffffffffff168152602001908152602001600020546200050d60201b620010e21790919060201c565b6000808473ffffffffffffffffffffffffffffffffffffffff1673ffffffffffffffffffffffffffffffffffffffff168152602001908152602001600020819055508173ffffffffffffffffffffffffffffffffffffffff16600073ffffffffffffffffffffffffffffffffffffffff167fddf252ad1be2c89b69c2b068fc378daa952ba7f163c4a11628f55a4df523b3ef836040518082815260200191505060405180910390a35050565b505050565b6000808284019050838110156200058c576040517f08c379a000000000000000000000000000000000000000000000000000000000815260040180806020018281038252601b8152602001807f536166654d6174683a206164646974696f6e206f766572666c6f77000000000081525060200191505060405180910390fd5b8091505092915050565b828054600181600116156101000203166002900490600052602060002090601f016020900481019282601f10620005d957805160ff19168380011785556200060a565b828001600101855582156200060a579182015b8281111562000609578251825591602001919060010190620005ec565b5b5090506200061991906200061d565b5090565b6200064291905b808211156200063e57600081600090555060010162000624565b5090565b90565b61146d80620006556000396000f3fe608060405234801561001057600080fd5b50600436106100cf5760003560e01c806340c10f191161008c578063a457c2d711610066578063a457c2d714610414578063a9059cbb1461047a578063b2bdfa7b146104e0578063dd62ed3e1461052a576100cf565b806340c10f19146102eb57806370a082311461033957806395d89b4114610391576100cf565b806306fdde03146100d4578063095ea7b31461015757806318160ddd146101bd57806323b872dd146101db578063313ce567146102615780633950935114610285575b600080fd5b6100dc6105a2565b6040518080602001828103825283818151815260200191508051906020019080838360005b8381101561011c578082015181840152602081019050610101565b50505050905090810190601f1680156101495780820380516001836020036101000a031916815260200191505b509250505060405180910390f35b6101a36004803603604081101561016d57600080fd5b81019080803573ffffffffffffffffffffffffffffffffffffffff16906020019092919080359060200190929190505050610644565b604051808215151515815260200191505060405180910390f35b6101c5610662565b6040518082815260200191505060405180910390f35b610247600480360360608110156101f157600080fd5b81019080803573ffffffffffffffffffffffffffffffffffffffff169060200190929190803573ffffffffffffffffffffffffffffffffffffffff1690602001909291908035906020019092919050505061066c565b604051808215151515815260200191505060405180910390f35b610269610745565b604051808260ff1660ff16815260200191505060405180910390f35b6102d16004803603604081101561029b57600080fd5b81019080803573ffffffffffffffffffffffffffffffffffffffff1690602001909291908035906020019092919050505061075c565b604051808215151515815260200191505060405180910390f35b6103376004803603604081101561030157600080fd5b81019080803573ffffffffffffffffffffffffffffffffffffffff1690602001909291908035906020019092919050505061080f565b005b61037b6004803603602081101561034f57600080fd5b81019080803573ffffffffffffffffffffffffffffffffffffffff1690602001909291905050506108e0565b6040518082815260200191505060405180910390f35b610399610928565b6040518080602001828103825283818151815260200191508051906020019080838360005b838110156103d95780820151818401526020810190506103be565b50505050905090810190601f1680156104065780820380516001836020036101000a031916815260200191505b509250505060405180910390f35b6104606004803603604081101561042a57600080fd5b81019080803573ffffffffffffffffffffffffffffffffffffffff169060200190929190803590602001909291905050506109ca565b604051808215151515815260200191505060405180910390f35b6104c66004803603604081101561049057600080fd5b81019080803573ffffffffffffffffffffffffffffffffffffffff16906020019092919080359060200190929190505050610a97565b604051808215151515815260200191505060405180910390f35b6104e8610ab5565b604051808273ffffffffffffffffffffffffffffffffffffffff1673ffffffffffffffffffffffffffffffffffffffff16815260200191505060405180910390f35b61058c6004803603604081101561054057600080fd5b81019080803573ffffffffffffffffffffffffffffffffffffffff169060200190929190803573ffffffffffffffffffffffffffffffffffffffff169060200190929190505050610adb565b6040518082815260200191505060405180910390f35b606060038054600181600116156101000203166002900480601f01602080910402602001604051908101604052809291908181526020018280546001816001161561010002031660029004801561063a5780601f1061060f5761010080835404028352916020019161063a565b820191906000526020600020905b81548152906001019060200180831161061d57829003601f168201915b5050505050905090565b6000610658610651610b62565b8484610b6a565b6001905092915050565b6000600254905090565b6000610679848484610d61565b61073a84610685610b62565b610735856040518060600160405280602881526020016113a260289139600160008b73ffffffffffffffffffffffffffffffffffffffff1673ffffffffffffffffffffffffffffffffffffffff16815260200190815260200160002060006106eb610b62565b73ffffffffffffffffffffffffffffffffffffffff1673ffffffffffffffffffffffffffffffffffffffff168152602001908152602001600020546110229092919063ffffffff16565b610b6a565b600190509392505050565b6000600560009054906101000a900460ff16905090565b6000610805610769610b62565b84610800856001600061077a610b62565b73ffffffffffffffffffffffffffffffffffffffff1673ffffffffffffffffffffffffffffffffffffffff16815260200190815260200160002060008973ffffffffffffffffffffffffffffffffffffffff1673ffffffffffffffffffffffffffffffffffffffff168152602001908152602001600020546110e290919063ffffffff16565b610b6a565b6001905092915050565b600560019054906101000a900473ffffffffffffffffffffffffffffffffffffffff1673ffffffffffffffffffffffffffffffffffffffff163373ffffffffffffffffffffffffffffffffffffffff16146108d2576040517f08c379a000000000000000000000000000000000000000000000000000000000815260040180806020018281038252600d8152602001807f4163636573732064656e6965640000000000000000000000000000000000000081525060200191505060405180910390fd5b6108dc828261116a565b5050565b60008060008373ffffffffffffffffffffffffffffffffffffffff1673ffffffffffffffffffffffffffffffffffffffff168152602001908152602001600020549050919050565b606060048054600181600116156101000203166002900480601f0160208091040260200160405190810160405280929190818152602001828054600181600116156101000203166002900480156109c05780601f10610995576101008083540402835291602001916109c0565b820191906000526020600020905b8154815290600101906020018083116109a357829003601f168201915b5050505050905090565b6000610a8d6109d7610b62565b84610a88856040518060600160405280602581526020016114136025913960016000610a01610b62565b73ffffffffffffffffffffffffffffffffffffffff1673ffffffffffffffffffffffffffffffffffffffff16815260200190815260200160002060008a73ffffffffffffffffffffffffffffffffffffffff1673ffffffffffffffffffffffffffffffffffffffff168152602001908152602001600020546110229092919063ffffffff16565b610b6a565b6001905092915050565b6000610aab610aa4610b62565b8484610d61565b6001905092915050565b600560019054906101000a900473ffffffffffffffffffffffffffffffffffffffff1681565b6000600160008473ffffffffffffffffffffffffffffffffffffffff1673ffffffffffffffffffffffffffffffffffffffff16815260200190815260200160002060008373ffffffffffffffffffffffffffffffffffffffff1673ffffffffffffffffffffffffffffffffffffffff16815260200190815260200160002054905092915050565b600033905090565b600073ffffffffffffffffffffffffffffffffffffffff168373ffffffffffffffffffffffffffffffffffffffff161415610bf0576040517f08c379a00000000000000000000000000000000000000000000000000000000081526004018080602001828103825260248152602001806113ef6024913960400191505060405180910390fd5b600073ffffffffffffffffffffffffffffffffffffffff168273ffffffffffffffffffffffffffffffffffffffff161415610c76576040517f08c379a000000000000000000000000000000000000000000000000000000000815260040180806020018281038252602281526020018061135a6022913960400191505060405180910390fd5b80600160008573ffffffffffffffffffffffffffffffffffffffff1673ffffffffffffffffffffffffffffffffffffffff16815260200190815260200160002060008473ffffffffffffffffffffffffffffffffffffffff1673ffffffffffffffffffffffffffffffffffffffff168152602001908152602001600020819055508173ffffffffffffffffffffffffffffffffffffffff168373ffffffffffffffffffffffffffffffffffffffff167f8c5be1e5ebec7d5bd14f71427d1e84f3dd0314c0f7b2291e5b200ac8c7c3b925836040518082815260200191505060405180910390a3505050565b600073ffffffffffffffffffffffffffffffffffffffff168373ffffffffffffffffffffffffffffffffffffffff161415610de7576040517f08c379a00000000000000000000000000000000000000000000000000000000081526004018080602001828103825260258152602001806113ca6025913960400191505060405180910390fd5b600073ffffffffffffffffffffffffffffffffffffffff168273ffffffffffffffffffffffffffffffffffffffff161415610e6d576040517f08c379a00000000000000000000000000000000000000000000000000000000081526004018080602001828103825260238152602001806113376023913960400191505060405180910390fd5b610e78838383611331565b610ee38160405180606001604052806026815260200161137c602691396000808773ffffffffffffffffffffffffffffffffffffffff1673ffffffffffffffffffffffffffffffffffffffff168152602001908152602001600020546110229092919063ffffffff16565b6000808573ffffffffffffffffffffffffffffffffffffffff1673ffffffffffffffffffffffffffffffffffffffff16815260200190815260200160002081905550610f76816000808573ffffffffffffffffffffffffffffffffffffffff1673ffffffffffffffffffffffffffffffffffffffff168152602001908152602001600020546110e290919063ffffffff16565b6000808473ffffffffffffffffffffffffffffffffffffffff1673ffffffffffffffffffffffffffffffffffffffff168152602001908152602001600020819055508173ffffffffffffffffffffffffffffffffffffffff168373ffffffffffffffffffffffffffffffffffffffff167fddf252ad1be2c89b69c2b068fc378daa952ba7f163c4a11628f55a4df523b3ef836040518082815260200191505060405180910390a3505050565b60008383111582906110cf576040517f08c379a00000000000000000000000000000000000000000000000000000000081526004018080602001828103825283818151815260200191508051906020019080838360005b83811015611094578082015181840152602081019050611079565b50505050905090810190601f1680156110c15780820380516001836020036101000a031916815260200191505b509250505060405180910390fd5b5060008385039050809150509392505050565b600080828401905083811015611160576040517f08c379a000000000000000000000000000000000000000000000000000000000815260040180806020018281038252601b8152602001807f536166654d6174683a206164646974696f6e206f766572666c6f77000000000081525060200191505060405180910390fd5b8091505092915050565b600073ffffffffffffffffffffffffffffffffffffffff168273ffffffffffffffffffffffffffffffffffffffff16141561120d576040517f08c379a000000000000000000000000000000000000000000000000000000000815260040180806020018281038252601f8152602001807f45524332303a206d696e7420746f20746865207a65726f20616464726573730081525060200191505060405180910390fd5b61121960008383611331565b61122e816002546110e290919063ffffffff16565b600281905550611285816000808573ffffffffffffffffffffffffffffffffffffffff1673ffffffffffffffffffffffffffffffffffffffff168152602001908152602001600020546110e290919063ffffffff16565b6000808473ffffffffffffffffffffffffffffffffffffffff1673ffffffffffffffffffffffffffffffffffffffff168152602001908152602001600020819055508173ffffffffffffffffffffffffffffffffffffffff16600073ffffffffffffffffffffffffffffffffffffffff167fddf252ad1be2c89b69c2b068fc378daa952ba7f163c4a11628f55a4df523b3ef836040518082815260200191505060405180910390a35050565b50505056fe45524332303a207472616e7366657220746f20746865207a65726f206164647265737345524332303a20617070726f766520746f20746865207a65726f206164647265737345524332303a207472616e7366657220616d6f756e7420657863656564732062616c616e636545524332303a207472616e7366657220616d6f756e74206578636565647320616c6c6f77616e636545524332303a207472616e736665722066726f6d20746865207a65726f206164647265737345524332303a20617070726f76652066726f6d20746865207a65726f206164647265737345524332303a2064656372656173656420616c6c6f77616e63652062656c6f77207a65726fa264697066735822122024fa5852e8f200c0acd7ca6acfb5d0becf027e1a6885c3f2982c8f7b1c72060364736f6c6343000604003360806040523480156200001157600080fd5b5060405162001bbe38038062001bbe833981810160405260208110156200003757600080fd5b8101908080519060200190929190505050806000806101000a81548173ffffffffffffffffffffffffffffffffffffffff021916908373ffffffffffffffffffffffffffffffffffffffff16021790555080600160006101000a81548173ffffffffffffffffffffffffffffffffffffffff021916908373ffffffffffffffffffffffffffffffffffffffff16021790555060026009819055506402540be400600a81905550620000f1600460056200010660201b60201c565b600b819055506001600281905550506200026c565b6000816200013f6200012785670de0b6b3a76400006200015060201b60201c565b600285816200013257fe5b04620001e860201b60201c565b816200014757fe5b04905092915050565b6000808214806200016f57508282838502925082816200016c57fe5b04145b620001e2576040517f08c379a00000000000000000000000000000000000000000000000000000000081526004018080602001828103825260148152602001807f64732d6d6174682d6d756c2d6f766572666c6f7700000000000000000000000081525060200191505060405180910390fd5b92915050565b600082828401915081101562000266576040517f08c379a00000000000000000000000000000000000000000000000000000000081526004018080602001828103825260148152602001807f64732d6d6174682d6164642d6f766572666c6f7700000000000000000000000081525060200191505060405180910390fd5b92915050565b611942806200027c6000396000f3fe60806040526004361061011f5760003560e01c8063771282f6116100a0578063d3b5dc3b11610064578063d3b5dc3b146104df578063d96a094a1461050a578063e4849b3214610538578063fbfa941f14610573578063fc6634b9146105d85761011f565b8063771282f6146103925780637c405325146103bd57806398d5fdca146103f8578063cbf9fe5f14610423578063cff1f170146104885761011f565b806342e94c90116100e757806342e94c901461026157806352f6ee58146102c657806356891412146102f157806363ae8d6c1461031c5780636e27d889146103575761011f565b8063023f4147146101245780630c7d5cd81461014f5780631b9c515b1461017a5780632a1219d7146101a557806338af3eed1461020a575b600080fd5b34801561013057600080fd5b50610139610613565b6040518082815260200191505060405180910390f35b34801561015b57600080fd5b50610164610619565b6040518082815260200191505060405180910390f35b34801561018657600080fd5b5061018f61061f565b6040518082815260200191505060405180910390f35b3480156101b157600080fd5b506101f4600480360360208110156101c857600080fd5b81019080803573ffffffffffffffffffffffffffffffffffffffff169060200190929190505050610625565b6040518082815260200191505060405180910390f35b34801561021657600080fd5b5061021f61063d565b604051808273ffffffffffffffffffffffffffffffffffffffff1673ffffffffffffffffffffffffffffffffffffffff16815260200191505060405180910390f35b34801561026d57600080fd5b506102b06004803603602081101561028457600080fd5b81019080803573ffffffffffffffffffffffffffffffffffffffff169060200190929190505050610662565b6040518082815260200191505060405180910390f35b3480156102d257600080fd5b506102db61067a565b6040518082815260200191505060405180910390f35b3480156102fd57600080fd5b50610306610680565b6040518082815260200191505060405180910390f35b34801561032857600080fd5b506103556004803603602081101561033f57600080fd5b8101908080359060200190929190505050610686565b005b34801561036357600080fd5b506103906004803603602081101561037a57600080fd5b81019080803590602001909291905050506106db565b005b34801561039e57600080fd5b506103a7610b6f565b6040518082815260200191505060405180910390f35b3480156103c957600080fd5b506103f6600480360360208110156103e057600080fd5b8101908080359060200190929190505050610b75565b005b34801561040457600080fd5b5061040d611009565b6040518082815260200191505060405180910390f35b34801561042f57600080fd5b506104726004803603602081101561044657600080fd5b81019080803573ffffffffffffffffffffffffffffffffffffffff169060200190929190505050611050565b6040518082815260200191505060405180910390f35b34801561049457600080fd5b5061049d611068565b604051808273ffffffffffffffffffffffffffffffffffffffff1673ffffffffffffffffffffffffffffffffffffffff16815260200191505060405180910390f35b3480156104eb57600080fd5b506104f461108e565b6040518082815260200191505060405180910390f35b6105366004803603602081101561052057600080fd5b810190808035906020019092919050505061109a565b005b34801561054457600080fd5b506105716004803603602081101561055b57600080fd5b81019080803590602001909291905050506112af565b005b34801561057f57600080fd5b506105c26004803603602081101561059657600080fd5b81019080803573ffffffffffffffffffffffffffffffffffffffff1690602001909291905050506114c5565b6040518082815260200191505060405180910390f35b3480156105e457600080fd5b50610611600480360360208110156105fb57600080fd5b81019080803590602001909291905050506114dd565b005b60035481565b600b5481565b600a5481565b60086020528060005260406000206000915090505481565b6000809054906101000a900473ffffffffffffffffffffffffffffffffffffffff1681565b60076020528060005260406000206000915090505481565b60095481565b60045481565b600061069182611532565b905080600860003373ffffffffffffffffffffffffffffffffffffffff1673ffffffffffffffffffffffffffffffffffffffff168152602001908152602001600020819055505050565b600081116040518060400160405280601681526020017f416d6f756e74206d757374206265206e6f6e7a65726f00000000000000000000815250906107bb576040517f08c379a00000000000000000000000000000000000000000000000000000000081526004018080602001828103825283818151815260200191508051906020019080838360005b83811015610780578082015181840152602081019050610765565b50505050905090810190601f1680156107ad5780820380516001836020036101000a031916815260200191505b509250505060405180910390fd5b50600560003373ffffffffffffffffffffffffffffffffffffffff1673ffffffffffffffffffffffffffffffffffffffff168152602001908152602001600020548111156040518060400160405280601d81526020017f52657175657374206578636565647320746f6b656e2062616c616e6365000000815250906108db576040517f08c379a00000000000000000000000000000000000000000000000000000000081526004018080602001828103825283818151815260200191508051906020019080838360005b838110156108a0578082015181840152602081019050610885565b50505050905090810190601f1680156108cd5780820380516001836020036101000a031916815260200191505b509250505060405180910390fd5b506000610927600660003373ffffffffffffffffffffffffffffffffffffffff1673ffffffffffffffffffffffffffffffffffffffff1681526020019081526020016000205483611566565b90506000610974600560003373ffffffffffffffffffffffffffffffffffffffff1673ffffffffffffffffffffffffffffffffffffffff16815260200190815260200160002054846115e9565b905081600660003373ffffffffffffffffffffffffffffffffffffffff1673ffffffffffffffffffffffffffffffffffffffff1681526020019081526020016000208190555080600560003373ffffffffffffffffffffffffffffffffffffffff1673ffffffffffffffffffffffffffffffffffffffff16815260200190815260200160002081905550826004600082825401925050819055506000600160009054906101000a900473ffffffffffffffffffffffffffffffffffffffff1673ffffffffffffffffffffffffffffffffffffffff166347e7ef2433866040518363ffffffff1660e01b8152600401808373ffffffffffffffffffffffffffffffffffffffff1673ffffffffffffffffffffffffffffffffffffffff16815260200182815260200192505050602060405180830381600087803b158015610ab957600080fd5b505af1158015610acd573d6000803e3d6000fd5b505050506040513d6020811015610ae357600080fd5b8101908080519060200190929190505050905080610b69576040517f08c379a000000000000000000000000000000000000000000000000000000000815260040180806020018281038252601d8152602001807f44414f20636f6e74726163742072656a6563746564206465706f73697400000081525060200191505060405180910390fd5b50505050565b60025481565b600081116040518060400160405280601681526020017f416d6f756e74206d757374206265206e6f6e7a65726f0000000000000000000081525090610c55576040517f08c379a00000000000000000000000000000000000000000000000000000000081526004018080602001828103825283818151815260200191508051906020019080838360005b83811015610c1a578082015181840152602081019050610bff565b50505050905090810190601f168015610c475780820380516001836020036101000a031916815260200191505b509250505060405180910390fd5b50600660003373ffffffffffffffffffffffffffffffffffffffff1673ffffffffffffffffffffffffffffffffffffffff168152602001908152602001600020548111156040518060400160405280601d81526020017f52657175657374206578636565647320746f6b656e2062616c616e636500000081525090610d75576040517f08c379a00000000000000000000000000000000000000000000000000000000081526004018080602001828103825283818151815260200191508051906020019080838360005b83811015610d3a578082015181840152602081019050610d1f565b50505050905090810190601f168015610d675780820380516001836020036101000a031916815260200191505b509250505060405180910390fd5b506000610dc1600660003373ffffffffffffffffffffffffffffffffffffffff1673ffffffffffffffffffffffffffffffffffffffff16815260200190815260200160002054836115e9565b90506000610e0e600560003373ffffffffffffffffffffffffffffffffffffffff1673ffffffffffffffffffffffffffffffffffffffff1681526020019081526020016000205484611566565b905081600660003373ffffffffffffffffffffffffffffffffffffffff1673ffffffffffffffffffffffffffffffffffffffff1681526020019081526020016000208190555080600560003373ffffffffffffffffffffffffffffffffffffffff1673ffffffffffffffffffffffffffffffffffffffff16815260200190815260200160002081905550826004600082825403925050819055506000600160009054906101000a900473ffffffffffffffffffffffffffffffffffffffff1673ffffffffffffffffffffffffffffffffffffffff1663c606627233866040518363ffffffff1660e01b8152600401808373ffffffffffffffffffffffffffffffffffffffff1673ffffffffffffffffffffffffffffffffffffffff16815260200182815260200192505050602060405180830381600087803b158015610f5357600080fd5b505af1158015610f67573d6000803e3d6000fd5b505050506040513d6020811015610f7d57600080fd5b8101908080519060200190929190505050905080611003576040517f08c379a00000000000000000000000000000000000000000000000000000000081526004018080602001828103825260208152602001807f44414f20636f6e74726163742072656a6563746564207769746864726177616c81525060200191505060405180910390fd5b50505050565b6000600860003373ffffffffffffffffffffffffffffffffffffffff1673ffffffffffffffffffffffffffffffffffffffff16815260200190815260200160002054905090565b60066020528060005260406000206000915090505481565b600160009054906101000a900473ffffffffffffffffffffffffffffffffffffffff1681565b670de0b6b3a764000081565b60006110a582611532565b9050803410156040518060400160405280601281526020017f496e73756666696369656e74204574686572000000000000000000000000000081525090611187576040517f08c379a00000000000000000000000000000000000000000000000000000000081526004018080602001828103825283818151815260200191508051906020019080838360005b8381101561114c578082015181840152602081019050611131565b50505050905090810190601f1680156111795780820380516001836020036101000a031916815260200191505b509250505060405180910390fd5b50600061119634600b5461166c565b905060006111a434836115e9565b90506000818334030390506000811115611200573373ffffffffffffffffffffffffffffffffffffffff166108fc829081150290604051600060405180830381858888f193505050501580156111fe573d6000803e3d6000fd5b505b611249600560003373ffffffffffffffffffffffffffffffffffffffff1673ffffffffffffffffffffffffffffffffffffffff1681526020019081526020016000205486611566565b600560003373ffffffffffffffffffffffffffffffffffffffff1673ffffffffffffffffffffffffffffffffffffffff1681526020019081526020016000208190555061129860025486611566565b6002819055506112a882336116ac565b5050505050565b600560003373ffffffffffffffffffffffffffffffffffffffff1673ffffffffffffffffffffffffffffffffffffffff168152602001908152602001600020548111156040518060400160405280601d81526020017f52657175657374206578636565647320746f6b656e2062616c616e6365000000815250906113ce576040517f08c379a00000000000000000000000000000000000000000000000000000000081526004018080602001828103825283818151815260200191508051906020019080838360005b83811015611393578082015181840152602081019050611378565b50505050905090810190601f1680156113c05780820380516001836020036101000a031916815260200191505b509250505060405180910390fd5b5060006113da826117b6565b90503373ffffffffffffffffffffffffffffffffffffffff166108fc829081150290604051600060405180830381858888f19350505050158015611422573d6000803e3d6000fd5b5061146c600560003373ffffffffffffffffffffffffffffffffffffffff1673ffffffffffffffffffffffffffffffffffffffff16815260200190815260200160002054836115e9565b600560003373ffffffffffffffffffffffffffffffffffffffff1673ffffffffffffffffffffffffffffffffffffffff168152602001908152602001600020819055506114bb600254836115e9565b6002819055505050565b60056020528060005260406000206000915090505481565b60006114e8826117b6565b905080600860003373ffffffffffffffffffffffffffffffffffffffff1673ffffffffffffffffffffffffffffffffffffffff168152602001908152602001600020819055505050565b60008061154160025484611566565b9050600061155a60025483670de0b6b3a76400006117e4565b90508092505050919050565b60008282840191508110156115e3576040517f08c379a00000000000000000000000000000000000000000000000000000000081526004018080602001828103825260148152602001807f64732d6d6174682d6164642d6f766572666c6f7700000000000000000000000081525060200191505060405180910390fd5b92915050565b6000828284039150811115611666576040517f08c379a00000000000000000000000000000000000000000000000000000000081526004018080602001828103825260158152602001807f64732d6d6174682d7375622d756e646572666c6f77000000000000000000000081525060200191505060405180910390fd5b92915050565b6000670de0b6b3a764000061169c611684858561183f565b6002670de0b6b3a76400008161169657fe5b04611566565b816116a357fe5b04905092915050565b6000809054906101000a900473ffffffffffffffffffffffffffffffffffffffff1673ffffffffffffffffffffffffffffffffffffffff166108fc839081150290604051600060405180830381858888f19350505050158015611713573d6000803e3d6000fd5b5061175d600760008373ffffffffffffffffffffffffffffffffffffffff1673ffffffffffffffffffffffffffffffffffffffff1681526020019081526020016000205483611566565b600760008373ffffffffffffffffffffffffffffffffffffffff1673ffffffffffffffffffffffffffffffffffffffff168152602001908152602001600020819055506117ac60035483611566565b6003819055505050565b6000806117c5600254846115e9565b905060006117d882600254600b546117e4565b90508092505050919050565b600080600160095401905060006117fd600a548561166c565b9050600061180d83870a846118d4565b9050600061181d84890a856118d4565b90506118328361182d84846115e9565b61166c565b9450505050509392505050565b60008082148061185c575082828385029250828161185957fe5b04145b6118ce576040517f08c379a00000000000000000000000000000000000000000000000000000000081526004018080602001828103825260148152602001807f64732d6d6174682d6d756c2d6f766572666c6f7700000000000000000000000081525060200191505060405180910390fd5b92915050565b6000816118fc6118ec85670de0b6b3a764000061183f565b600285816118f657fe5b04611566565b8161190357fe5b0490509291505056fea2646970667358221220c7b8f8406472e089a3064ee3a42054cdefcde0137aa784b7d41a1807e4ac20da64736f6c63430006040033",
  "source": "pragma solidity ^0.6.4;\n\nimport \"./TokenTemplate.sol\";\nimport \"./BondingCurve.sol\";\nimport \"@openzeppelin/contracts/math/SafeMath.sol\";\n\n/**\n * @dev Implementation of a DAO (Decentralized Autonomous Organization) for the CommonsHood app.\n *\n * This implementation consists in an organization that have an owner and various members with\n * various roles. The organization is capable of issuing tokens (ERC20 compliant) or Crowdsales.\n * Tokens can be transfered to others accounts or others DAOs. Only members with a role grater\n * than or equal to ROLE_ADMIN can issue new tokens and crowdsales.\n *\n * Users can join the DAO with the role ROLE_MEMBER. They can be promoted to higher roles only by a\n * ROLE_ADMIN or a ROLE_OWNER. All writing operations can be performed only by users with ROLE_ADMIN\n * or higher.\n */\ncontract CcDAO {\n    using SafeMath for uint256;\n    string public name;\n    address public creator;\n    TokenTemplate public RhizomeRewards;\n\n    mapping(address => uint) roles;\n    mapping(address => uint) allocations;\n    mapping(address => uint) disbursed;\n    mapping(address => uint) validated;\n\n    uint256 public constant ELIGIBLE_UNIT = 10 ** 9;\n    mapping(address => uint256) internal _stake;\n    mapping(address => uint256) internal _stakeRemainder;\n    uint256 internal _stakeTotal;\n    uint256 internal _rewardTotal;\n    uint256 internal _rewardRemainder;\n    mapping(address => int256) _rewardOffset;\n\n    uint internal constant ROLE_FACILITATOR = 40;\n    uint internal constant ROLE_RECIPIENT = 30;\n    uint internal constant ROLE_PROJECT = 20;\n    uint internal constant ROLE_NONE = 0;\n\n    string internal constant INSUFFICIENT_PRIVILEGES = \"Action requires admin privileges\";\n    string internal constant INVALID_TARGET = \"Amount must be nonzero\";\n    string internal constant INSUFFICIENT_FUNDS = \"Allocation exceeds available funds\";\n    string internal constant INSUFFICIENT_TOKENS = \"Withdrawal exceeds amount of tokens locked\";\n    string internal constant NOT_FOUND = \"Entity not found\";\n\n    constructor(\n        string memory _name,\n        address _creator\n    ) public {\n        bytes memory testName = bytes(_name);\n        require(testName.length > 0, \"DAO Name cannot be empty\");\n\n        name = _name;\n        creator = _creator;\n\n        _stakeTotal = 0;\n        _rewardTotal = 0;\n        _rewardRemainder = 0;\n\n        roles[creator] = ROLE_FACILITATOR;\n\n        RhizomeRewards = new TokenTemplate('Rhizome', 'RHR', 0, msg.sender);\n        BondingCurve RhizomeCurve = new BondingCurve(address(this));\n    }\n\n    fallback() external {}\n\n    function addProject(address _project, uint256 amount) public {\n        require(roles[msg.sender] == ROLE_FACILITATOR, INSUFFICIENT_PRIVILEGES);\n        require(amount <= address(this).balance, INSUFFICIENT_FUNDS);\n        roles[_project] = ROLE_PROJECT;\n        allocations[_project] = amount;\n    }\n\n    function updateAllocation(address _project, uint256 amount) public {\n        require(roles[msg.sender] == ROLE_FACILITATOR, INSUFFICIENT_PRIVILEGES);\n        require(amount <= address(this).balance, INSUFFICIENT_FUNDS);\n        allocations[_project] = amount;\n    }\n\n    function allocate(address payable _project) private {\n        uint256 amount = allocations[_project];\n        require(amount <= address(this).balance, INSUFFICIENT_FUNDS);\n        _project.transfer(amount);\n        disbursed[_project] = amount;\n        delete(allocations[_project]);\n        roles[_project] = ROLE_RECIPIENT;\n    }\n\n    function validate(address _project)\n    external {\n        require(roles[_project] == ROLE_RECIPIENT, \"Invalid target\");\n        uint256 rewards = disbursed[_project];\n        distribute(rewards);\n        validated[_project] = disbursed[_project];\n        delete(disbursed[_project]);\n    }\n\n    function kickProject(address _project) public {\n        require(roles[_project] > ROLE_NONE, NOT_FOUND);\n        require(roles[_project] < ROLE_RECIPIENT, \"Project has already been funded\");\n        require(roles[msg.sender] > ROLE_PROJECT, INSUFFICIENT_PRIVILEGES);\n        delete(roles[_project]);\n        delete(allocations[_project]);\n    }\n\n    function addFacilitator(address _admin) public {\n        roles[_admin] = ROLE_FACILITATOR;\n    }\n\n    function deposit(address staker, uint256 tokens) public returns (bool success) {\n        uint256 _tokensToAdd = tokens.add(_stakeRemainder[staker]);\n\n        uint256 _eligibleUnitsToAdd = _tokensToAdd.div(ELIGIBLE_UNIT);\n\n        // update the new remainder for this address\n        _stakeRemainder[msg.sender] = _tokensToAdd.mod(ELIGIBLE_UNIT);\n\n        // set the current stake for this address\n        _stake[staker] = _stake[staker].add(_eligibleUnitsToAdd);\n\n        // update total eligible stake units\n        _stakeTotal = _stakeTotal.add(_eligibleUnitsToAdd);\n\n        // update reward offset\n        _rewardOffset[staker] += (int256)(_rewardTotal * _eligibleUnitsToAdd);\n\n        return true;\n    }\n\n    /// @notice Distribute tokens pro rata to all stakers.\n    function distribute(uint256 rewards) internal returns (bool success) {\n        /////\n        // add past distribution remainder\n        uint256 _amountToDistribute = rewards.add(_rewardRemainder);\n\n        if (_stakeTotal == 0) {\n            _rewardRemainder = _amountToDistribute;\n        } else {\n            // determine rewards per eligible stake\n            uint256 _ratio = _amountToDistribute.div(_stakeTotal);\n\n            // carry on remainder\n            _rewardRemainder = _amountToDistribute.mod(_stakeTotal);\n\n            // increase total rewards per stake unit\n            _rewardTotal = _rewardTotal.add(_ratio);\n        }\n        return true;\n    }\n\n    /// @notice Withdraw accumulated reward for the staker address.\n    function withdrawReward() public {\n        uint256 _reward = getReward(msg.sender);\n\n        // refresh reward offset (so a new call to getReward returns 0)\n        _rewardOffset[msg.sender] = (int256)(_rewardTotal.mul(_stake[msg.sender]));\n\n        RhizomeRewards.mint(msg.sender, _reward);\n    }\n\n    /// @notice Withdraw stake for the staker address\n    function withdrawStake(address staker, uint256 tokens) public returns (bool) {\n        uint256 _currentStake = getStake(staker);\n\n        require(tokens <= _currentStake, INSUFFICIENT_TOKENS);\n\n        // update stake and remainder for this address\n        uint256 _newStake = _currentStake.sub(tokens);\n\n        _stakeRemainder[staker] = _newStake.mod(ELIGIBLE_UNIT);\n\n        uint256 _eligibleUnitsDelta = _stake[staker].sub(_newStake.div(ELIGIBLE_UNIT));\n\n        _stake[staker] = _stake[staker].sub(_eligibleUnitsDelta);\n\n        // update total stake\n        _stakeTotal = _stakeTotal.sub(_eligibleUnitsDelta);\n\n        // update reward offset\n        _rewardOffset[staker] -= (int256)(_rewardTotal.mul(_eligibleUnitsDelta));\n\n        return true;\n    }\n\n    /// @notice Withdraw stake for the staker address\n    function withdrawAllStake(address staker) public returns (bool) {\n        uint256 _currentStake = getStake(staker);\n        return withdrawStake(staker, _currentStake);\n    }\n\n    ///\n    /// READ ONLY\n    ///\n\n    /// @notice Read total stake.\n    function getStakeTotal() public view returns (uint256) {\n        return _stakeTotal.mul(ELIGIBLE_UNIT);\n    }\n\n    /// @notice Read current stake for address.\n    function getStake(address staker) public view returns (uint256 tokens) {\n        tokens = (_stake[staker].mul(ELIGIBLE_UNIT)).add(_stakeRemainder[staker]);\n\n        return tokens;\n    }\n\n    /// @notice Read current accumulated reward for address.\n    function getReward(address staker) public view returns (uint256 tokens) {\n        int256 _tokens = ((int256)(_stake[staker].mul(_rewardTotal)) - _rewardOffset[staker]);\n\n        tokens = (uint256)(_tokens);\n\n        return tokens;\n    }\n}",
  "sourcePath": "/home/xiphi/rhizome-factory/contracts/CcDAO.sol",
  "compiler": {
    "name": "solc",
    "version": "0.6.4+commit.1dca32f3.Emscripten.clang"
  },
  "schemaVersion": "3.1.0",
  "updatedAt": "2020-04-26T07:22:09.510Z",
  "devdoc": {
    "details": "Implementation of a DAO (Decentralized Autonomous Organization) for the CommonsHood app. * This implementation consists in an organization that have an owner and various members with various roles. The organization is capable of issuing tokens (ERC20 compliant) or Crowdsales. Tokens can be transfered to others accounts or others DAOs. Only members with a role grater than or equal to ROLE_ADMIN can issue new tokens and crowdsales. * Users can join the DAO with the role ROLE_MEMBER. They can be promoted to higher roles only by a ROLE_ADMIN or a ROLE_OWNER. All writing operations can be performed only by users with ROLE_ADMIN or higher.",
    "methods": {}
  },
  "userdoc": {
    "methods": {
      "getReward(address)": {
        "notice": "Read current accumulated reward for address."
      },
      "getStake(address)": {
        "notice": "Read current stake for address."
      },
      "getStakeTotal()": {
        "notice": " READ ONLY  Read total stake."
      },
      "withdrawAllStake(address)": {
        "notice": "Withdraw stake for the staker address"
      },
      "withdrawReward()": {
        "notice": "Withdraw accumulated reward for the staker address."
      },
      "withdrawStake(address,uint256)": {
        "notice": "Withdraw stake for the staker address"
      }
    }
  }
}