{
  "contractName": "CcDAO",
  "abi": [
    {
      "inputs": [
        {
          "internalType": "string",
          "name": "_name",
          "type": "string"
        },
        {
          "internalType": "address",
          "name": "_creator",
          "type": "address"
        }
      ],
      "stateMutability": "nonpayable",
      "type": "constructor"
    },
    {
      "anonymous": false,
      "inputs": [
        {
          "indexed": false,
          "internalType": "address",
          "name": "_project",
          "type": "address"
        },
        {
          "indexed": false,
          "internalType": "uint256",
          "name": "_amount",
          "type": "uint256"
        }
      ],
      "name": "Allocation",
      "type": "event"
    },
    {
      "anonymous": false,
      "inputs": [
        {
          "indexed": false,
          "internalType": "address",
          "name": "_project",
          "type": "address"
        },
        {
          "indexed": false,
          "internalType": "uint256",
          "name": "_amount",
          "type": "uint256"
        }
      ],
      "name": "Project",
      "type": "event"
    },
    {
      "stateMutability": "nonpayable",
      "type": "fallback"
    },
    {
      "inputs": [],
      "name": "ELIGIBLE_UNIT",
      "outputs": [
        {
          "internalType": "uint256",
          "name": "",
          "type": "uint256"
        }
      ],
      "stateMutability": "view",
      "type": "function"
    },
    {
      "inputs": [],
      "name": "RhizomeRewards",
      "outputs": [
        {
          "internalType": "contract TokenTemplate",
          "name": "",
          "type": "address"
        }
      ],
      "stateMutability": "view",
      "type": "function"
    },
    {
      "inputs": [],
      "name": "creator",
      "outputs": [
        {
          "internalType": "address",
          "name": "",
          "type": "address"
        }
      ],
      "stateMutability": "view",
      "type": "function"
    },
    {
      "inputs": [],
      "name": "name",
      "outputs": [
        {
          "internalType": "string",
          "name": "",
          "type": "string"
        }
      ],
      "stateMutability": "view",
      "type": "function"
    },
    {
      "inputs": [
        {
          "internalType": "address",
          "name": "_project",
          "type": "address"
        },
        {
          "internalType": "uint256",
          "name": "amount",
          "type": "uint256"
        }
      ],
      "name": "addProject",
      "outputs": [],
      "stateMutability": "nonpayable",
      "type": "function"
    },
    {
      "inputs": [
        {
          "internalType": "address",
          "name": "_project",
          "type": "address"
        },
        {
          "internalType": "uint256",
          "name": "amount",
          "type": "uint256"
        }
      ],
      "name": "updateAllocation",
      "outputs": [],
      "stateMutability": "nonpayable",
      "type": "function"
    },
    {
      "inputs": [
        {
          "internalType": "address payable",
          "name": "_project",
          "type": "address"
        }
      ],
      "name": "allocate",
      "outputs": [],
      "stateMutability": "nonpayable",
      "type": "function"
    },
    {
      "inputs": [
        {
          "internalType": "address",
          "name": "_project",
          "type": "address"
        }
      ],
      "name": "validate",
      "outputs": [],
      "stateMutability": "nonpayable",
      "type": "function"
    },
    {
      "inputs": [
        {
          "internalType": "address",
          "name": "_project",
          "type": "address"
        }
      ],
      "name": "kickProject",
      "outputs": [],
      "stateMutability": "nonpayable",
      "type": "function"
    },
    {
      "inputs": [
        {
          "internalType": "address",
          "name": "_admin",
          "type": "address"
        }
      ],
      "name": "addFacilitator",
      "outputs": [],
      "stateMutability": "nonpayable",
      "type": "function"
    },
    {
      "inputs": [
        {
          "internalType": "address",
          "name": "staker",
          "type": "address"
        },
        {
          "internalType": "uint256",
          "name": "tokens",
          "type": "uint256"
        }
      ],
      "name": "deposit",
      "outputs": [
        {
          "internalType": "bool",
          "name": "success",
          "type": "bool"
        }
      ],
      "stateMutability": "nonpayable",
      "type": "function"
    },
    {
      "inputs": [],
      "name": "withdrawReward",
      "outputs": [],
      "stateMutability": "nonpayable",
      "type": "function"
    },
    {
      "inputs": [
        {
          "internalType": "address",
          "name": "staker",
          "type": "address"
        },
        {
          "internalType": "uint256",
          "name": "tokens",
          "type": "uint256"
        }
      ],
      "name": "withdrawStake",
      "outputs": [
        {
          "internalType": "bool",
          "name": "",
          "type": "bool"
        }
      ],
      "stateMutability": "nonpayable",
      "type": "function"
    },
    {
      "inputs": [
        {
          "internalType": "address",
          "name": "staker",
          "type": "address"
        }
      ],
      "name": "withdrawAllStake",
      "outputs": [
        {
          "internalType": "bool",
          "name": "",
          "type": "bool"
        }
      ],
      "stateMutability": "nonpayable",
      "type": "function"
    },
    {
      "inputs": [],
      "name": "getStakeTotal",
      "outputs": [
        {
          "internalType": "uint256",
          "name": "",
          "type": "uint256"
        }
      ],
      "stateMutability": "view",
      "type": "function"
    },
    {
      "inputs": [
        {
          "internalType": "address",
          "name": "staker",
          "type": "address"
        }
      ],
      "name": "getStake",
      "outputs": [
        {
          "internalType": "uint256",
          "name": "tokens",
          "type": "uint256"
        }
      ],
      "stateMutability": "view",
      "type": "function"
    },
    {
      "inputs": [
        {
          "internalType": "address",
          "name": "staker",
          "type": "address"
        }
      ],
      "name": "getReward",
      "outputs": [
        {
          "internalType": "uint256",
          "name": "tokens",
          "type": "uint256"
        }
      ],
      "stateMutability": "view",
      "type": "function"
    }
  ],
  "bytecode": "0x60806040523480156200001157600080fd5b506040516200402438038062004024833981810160405260408110156200003757600080fd5b81019080805160405193929190846401000000008211156200005857600080fd5b838201915060208201858111156200006f57600080fd5b82518660018202830111640100000000821117156200008d57600080fd5b8083526020830192505050908051906020019080838360005b83811015620000c3578082015181840152602081019050620000a6565b50505050905090810190601f168015620000f15780820380516001836020036101000a031916815260200191505b50604052602001805190602001909291905050506060829050600081511162000182576040517f08c379a00000000000000000000000000000000000000000000000000000000081526004018080602001828103825260188152602001807f44414f204e616d652063616e6e6f7420626520656d707479000000000000000081525060200191505060405180910390fd5b82600090805190602001906200019a92919062000382565b5081600160006101000a81548173ffffffffffffffffffffffffffffffffffffffff021916908373ffffffffffffffffffffffffffffffffffffffff16021790555060006009819055506000600a819055506000600b81905550602860036000600160009054906101000a900473ffffffffffffffffffffffffffffffffffffffff1673ffffffffffffffffffffffffffffffffffffffff1673ffffffffffffffffffffffffffffffffffffffff168152602001908152602001600020819055506000336040516200026c9062000409565b8080602001806020018581526020018473ffffffffffffffffffffffffffffffffffffffff1673ffffffffffffffffffffffffffffffffffffffff168152602001838103835260078152602001807f5268697a6f6d6500000000000000000000000000000000000000000000000000815250602001838103825260038152602001807f5248520000000000000000000000000000000000000000000000000000000000815250602001945050505050604051809103906000f08015801562000338573d6000803e3d6000fd5b50600260006101000a81548173ffffffffffffffffffffffffffffffffffffffff021916908373ffffffffffffffffffffffffffffffffffffffff1602179055505050506200043f565b828054600181600116156101000203166002900490600052602060002090601f016020900481019282601f10620003c557805160ff1916838001178555620003f6565b82800160010185558215620003f6579182015b82811115620003f5578251825591602001919060010190620003d8565b5b50905062000405919062000417565b5090565b611ac2806200256283390190565b6200043c91905b80821115620004385760008160009055506001016200041e565b5090565b90565b612113806200044f6000396000f3fe608060405234801561001057600080fd5b506004361061010f5760003560e01c806370851703116100a2578063c00007b011610071578063c00007b0146104a3578063c6066272146104fb578063c885bc5814610561578063ca3a1a031461056b578063ffd7d983146105af57610110565b806370851703146103575780637a766460146103a55780637fa0cace146103fd578063849571911461044757610110565b806347e7ef24116100de57806347e7ef24146102415780634d1158d1146102a757806353a7bec8146102eb5780635735189e1461033957610110565b806302d05d3f1461011257806306fdde031461015c5780631f5726d9146101df578063207c64fb146101fd57610110565b5b005b61011a6105f3565b604051808273ffffffffffffffffffffffffffffffffffffffff1673ffffffffffffffffffffffffffffffffffffffff16815260200191505060405180910390f35b610164610619565b6040518080602001828103825283818151815260200191508051906020019080838360005b838110156101a4578082015181840152602081019050610189565b50505050905090810190601f1680156101d15780820380516001836020036101000a031916815260200191505b509250505060405180910390f35b6101e76106b7565b6040518082815260200191505060405180910390f35b61023f6004803603602081101561021357600080fd5b81019080803573ffffffffffffffffffffffffffffffffffffffff1690602001909291905050506106bf565b005b61028d6004803603604081101561025757600080fd5b81019080803573ffffffffffffffffffffffffffffffffffffffff1690602001909291908035906020019092919050505061088c565b604051808215151515815260200191505060405180910390f35b6102e9600480360360208110156102bd57600080fd5b81019080803573ffffffffffffffffffffffffffffffffffffffff169060200190929190505050610a65565b005b6103376004803603604081101561030157600080fd5b81019080803573ffffffffffffffffffffffffffffffffffffffff16906020019092919080359060200190929190505050610aad565b005b610341610d89565b6040518082815260200191505060405180910390f35b6103a36004803603604081101561036d57600080fd5b81019080803573ffffffffffffffffffffffffffffffffffffffff16906020019092919080359060200190929190505050610da9565b005b6103e7600480360360208110156103bb57600080fd5b81019080803573ffffffffffffffffffffffffffffffffffffffff169060200190929190505050610fd5565b6040518082815260200191505060405180910390f35b610405611088565b604051808273ffffffffffffffffffffffffffffffffffffffff1673ffffffffffffffffffffffffffffffffffffffff16815260200191505060405180910390f35b6104896004803603602081101561045d57600080fd5b81019080803573ffffffffffffffffffffffffffffffffffffffff1690602001909291905050506110ae565b604051808215151515815260200191505060405180910390f35b6104e5600480360360208110156104b957600080fd5b81019080803573ffffffffffffffffffffffffffffffffffffffff1690602001909291905050506110ce565b6040518082815260200191505060405180910390f35b6105476004803603604081101561051157600080fd5b81019080803573ffffffffffffffffffffffffffffffffffffffff16906020019092919080359060200190929190505050611174565b604051808215151515815260200191505060405180910390f35b610569611441565b005b6105ad6004803603602081101561058157600080fd5b81019080803573ffffffffffffffffffffffffffffffffffffffff1690602001909291905050506115a9565b005b6105f1600480360360208110156105c557600080fd5b81019080803573ffffffffffffffffffffffffffffffffffffffff169060200190929190505050611927565b005b600160009054906101000a900473ffffffffffffffffffffffffffffffffffffffff1681565b60008054600181600116156101000203166002900480601f0160208091040260200160405190810160405280929190818152602001828054600181600116156101000203166002900480156106af5780601f10610684576101008083540402835291602001916106af565b820191906000526020600020905b81548152906001019060200180831161069257829003601f168201915b505050505081565b633b9aca0081565b601e600360008373ffffffffffffffffffffffffffffffffffffffff1673ffffffffffffffffffffffffffffffffffffffff1681526020019081526020016000205414610774576040517f08c379a000000000000000000000000000000000000000000000000000000000815260040180806020018281038252600e8152602001807f496e76616c69642074617267657400000000000000000000000000000000000081525060200191505060405180910390fd5b6000600560008373ffffffffffffffffffffffffffffffffffffffff1673ffffffffffffffffffffffffffffffffffffffff1681526020019081526020016000205490506107c181611bb1565b50600560008373ffffffffffffffffffffffffffffffffffffffff1673ffffffffffffffffffffffffffffffffffffffff16815260200190815260200160002054600660008473ffffffffffffffffffffffffffffffffffffffff1673ffffffffffffffffffffffffffffffffffffffff16815260200190815260200160002081905550600560008373ffffffffffffffffffffffffffffffffffffffff1673ffffffffffffffffffffffffffffffffffffffff168152602001908152602001600020600090555050565b6000806108e1600860008673ffffffffffffffffffffffffffffffffffffffff1673ffffffffffffffffffffffffffffffffffffffff1681526020019081526020016000205484611c3d90919063ffffffff16565b905060006108fc633b9aca0083611cc590919063ffffffff16565b9050610915633b9aca0083611d0f90919063ffffffff16565b600860003373ffffffffffffffffffffffffffffffffffffffff1673ffffffffffffffffffffffffffffffffffffffff168152602001908152602001600020819055506109aa81600760008873ffffffffffffffffffffffffffffffffffffffff1673ffffffffffffffffffffffffffffffffffffffff16815260200190815260200160002054611c3d90919063ffffffff16565b600760008773ffffffffffffffffffffffffffffffffffffffff1673ffffffffffffffffffffffffffffffffffffffff16815260200190815260200160002081905550610a0281600954611c3d90919063ffffffff16565b60098190555080600a5402600c60008773ffffffffffffffffffffffffffffffffffffffff1673ffffffffffffffffffffffffffffffffffffffff1681526020019081526020016000206000828254019250508190555060019250505092915050565b6028600360008373ffffffffffffffffffffffffffffffffffffffff1673ffffffffffffffffffffffffffffffffffffffff1681526020019081526020016000208190555050565b6028600360003373ffffffffffffffffffffffffffffffffffffffff1673ffffffffffffffffffffffffffffffffffffffff16815260200190815260200160002054146040518060400160405280602081526020017f416374696f6e2072657175697265732061646d696e2070726976696c6567657381525090610bcc576040517f08c379a00000000000000000000000000000000000000000000000000000000081526004018080602001828103825283818151815260200191508051906020019080838360005b83811015610b91578082015181840152602081019050610b76565b50505050905090810190601f168015610bbe5780820380516001836020036101000a031916815260200191505b509250505060405180910390fd5b504781111560405180606001604052806022815260200161209b6022913990610c90576040517f08c379a00000000000000000000000000000000000000000000000000000000081526004018080602001828103825283818151815260200191508051906020019080838360005b83811015610c55578082015181840152602081019050610c3a565b50505050905090810190601f168015610c825780820380516001836020036101000a031916815260200191505b509250505060405180910390fd5b506014600360008473ffffffffffffffffffffffffffffffffffffffff1673ffffffffffffffffffffffffffffffffffffffff1681526020019081526020016000208190555080600460008473ffffffffffffffffffffffffffffffffffffffff1673ffffffffffffffffffffffffffffffffffffffff168152602001908152602001600020819055507f3262456268a3e973a2342af74b75a54eff254fae6ab323cd92628eb6393c4fe98282604051808373ffffffffffffffffffffffffffffffffffffffff1673ffffffffffffffffffffffffffffffffffffffff1681526020018281526020019250505060405180910390a15050565b6000610da4633b9aca00600954611d5990919063ffffffff16565b905090565b6028600360003373ffffffffffffffffffffffffffffffffffffffff1673ffffffffffffffffffffffffffffffffffffffff16815260200190815260200160002054146040518060400160405280602081526020017f416374696f6e2072657175697265732061646d696e2070726976696c6567657381525090610ec8576040517f08c379a00000000000000000000000000000000000000000000000000000000081526004018080602001828103825283818151815260200191508051906020019080838360005b83811015610e8d578082015181840152602081019050610e72565b50505050905090810190601f168015610eba5780820380516001836020036101000a031916815260200191505b509250505060405180910390fd5b504781111560405180606001604052806022815260200161209b6022913990610f8c576040517f08c379a00000000000000000000000000000000000000000000000000000000081526004018080602001828103825283818151815260200191508051906020019080838360005b83811015610f51578082015181840152602081019050610f36565b50505050905090810190601f168015610f7e5780820380516001836020036101000a031916815260200191505b509250505060405180910390fd5b5080600460008473ffffffffffffffffffffffffffffffffffffffff1673ffffffffffffffffffffffffffffffffffffffff168152602001908152602001600020819055505050565b600061107e600860008473ffffffffffffffffffffffffffffffffffffffff1673ffffffffffffffffffffffffffffffffffffffff16815260200190815260200160002054611070633b9aca00600760008773ffffffffffffffffffffffffffffffffffffffff1673ffffffffffffffffffffffffffffffffffffffff16815260200190815260200160002054611d5990919063ffffffff16565b611c3d90919063ffffffff16565b9050809050919050565b600260009054906101000a900473ffffffffffffffffffffffffffffffffffffffff1681565b6000806110ba83610fd5565b90506110c68382611174565b915050919050565b600080600c60008473ffffffffffffffffffffffffffffffffffffffff1673ffffffffffffffffffffffffffffffffffffffff16815260200190815260200160002054611165600a54600760008773ffffffffffffffffffffffffffffffffffffffff1673ffffffffffffffffffffffffffffffffffffffff16815260200190815260200160002054611d5990919063ffffffff16565b03905080915081915050919050565b60008061118084610fd5565b9050808311156040518060600160405280602a8152602001612071602a913990611245576040517f08c379a00000000000000000000000000000000000000000000000000000000081526004018080602001828103825283818151815260200191508051906020019080838360005b8381101561120a5780820151818401526020810190506111ef565b50505050905090810190601f1680156112375780820380516001836020036101000a031916815260200191505b509250505060405180910390fd5b50600061125b8483611ddf90919063ffffffff16565b9050611274633b9aca0082611d0f90919063ffffffff16565b600860008773ffffffffffffffffffffffffffffffffffffffff1673ffffffffffffffffffffffffffffffffffffffff1681526020019081526020016000208190555060006113216112d3633b9aca0084611cc590919063ffffffff16565b600760008973ffffffffffffffffffffffffffffffffffffffff1673ffffffffffffffffffffffffffffffffffffffff16815260200190815260200160002054611ddf90919063ffffffff16565b905061137581600760008973ffffffffffffffffffffffffffffffffffffffff1673ffffffffffffffffffffffffffffffffffffffff16815260200190815260200160002054611ddf90919063ffffffff16565b600760008873ffffffffffffffffffffffffffffffffffffffff1673ffffffffffffffffffffffffffffffffffffffff168152602001908152602001600020819055506113cd81600954611ddf90919063ffffffff16565b6009819055506113e881600a54611d5990919063ffffffff16565b600c60008873ffffffffffffffffffffffffffffffffffffffff1673ffffffffffffffffffffffffffffffffffffffff168152602001908152602001600020600082825403925050819055506001935050505092915050565b600061144c336110ce565b90506114a2600760003373ffffffffffffffffffffffffffffffffffffffff1673ffffffffffffffffffffffffffffffffffffffff16815260200190815260200160002054600a54611d5990919063ffffffff16565b600c60003373ffffffffffffffffffffffffffffffffffffffff1673ffffffffffffffffffffffffffffffffffffffff16815260200190815260200160002081905550600260009054906101000a900473ffffffffffffffffffffffffffffffffffffffff1673ffffffffffffffffffffffffffffffffffffffff166340c10f1933836040518363ffffffff1660e01b8152600401808373ffffffffffffffffffffffffffffffffffffffff1673ffffffffffffffffffffffffffffffffffffffff16815260200182815260200192505050600060405180830381600087803b15801561158e57600080fd5b505af11580156115a2573d6000803e3d6000fd5b5050505050565b6000600360008373ffffffffffffffffffffffffffffffffffffffff1673ffffffffffffffffffffffffffffffffffffffff16815260200190815260200160002054116040518060400160405280601081526020017f456e74697479206e6f7420666f756e6400000000000000000000000000000000815250906116c8576040517f08c379a00000000000000000000000000000000000000000000000000000000081526004018080602001828103825283818151815260200191508051906020019080838360005b8381101561168d578082015181840152602081019050611672565b50505050905090810190601f1680156116ba5780820380516001836020036101000a031916815260200191505b509250505060405180910390fd5b50601e600360008373ffffffffffffffffffffffffffffffffffffffff1673ffffffffffffffffffffffffffffffffffffffff168152602001908152602001600020541061177e576040517f08c379a000000000000000000000000000000000000000000000000000000000815260040180806020018281038252601f8152602001807f50726f6a6563742068617320616c7265616479206265656e2066756e6465640081525060200191505060405180910390fd5b6014600360003373ffffffffffffffffffffffffffffffffffffffff1673ffffffffffffffffffffffffffffffffffffffff16815260200190815260200160002054116040518060400160405280602081526020017f416374696f6e2072657175697265732061646d696e2070726976696c656765738152509061189d576040517f08c379a00000000000000000000000000000000000000000000000000000000081526004018080602001828103825283818151815260200191508051906020019080838360005b83811015611862578082015181840152602081019050611847565b50505050905090810190601f16801561188f5780820380516001836020036101000a031916815260200191505b509250505060405180910390fd5b50600360008273ffffffffffffffffffffffffffffffffffffffff1673ffffffffffffffffffffffffffffffffffffffff16815260200190815260200160002060009055600460008273ffffffffffffffffffffffffffffffffffffffff1673ffffffffffffffffffffffffffffffffffffffff1681526020019081526020016000206000905550565b6000600460008373ffffffffffffffffffffffffffffffffffffffff1673ffffffffffffffffffffffffffffffffffffffff1681526020019081526020016000205490504781111560405180606001604052806022815260200161209b6022913990611a2e576040517f08c379a00000000000000000000000000000000000000000000000000000000081526004018080602001828103825283818151815260200191508051906020019080838360005b838110156119f35780820151818401526020810190506119d8565b50505050905090810190601f168015611a205780820380516001836020036101000a031916815260200191505b509250505060405180910390fd5b508173ffffffffffffffffffffffffffffffffffffffff166108fc829081150290604051600060405180830381858888f19350505050158015611a75573d6000803e3d6000fd5b5080600560008473ffffffffffffffffffffffffffffffffffffffff1673ffffffffffffffffffffffffffffffffffffffff16815260200190815260200160002081905550600460008373ffffffffffffffffffffffffffffffffffffffff1673ffffffffffffffffffffffffffffffffffffffff16815260200190815260200160002060009055601e600360008473ffffffffffffffffffffffffffffffffffffffff1673ffffffffffffffffffffffffffffffffffffffff168152602001908152602001600020819055507f7a994e2e422225102fed915394da80aeeea86e2c0ca3f41d6d48421252f83b928282604051808373ffffffffffffffffffffffffffffffffffffffff1673ffffffffffffffffffffffffffffffffffffffff1681526020018281526020019250505060405180910390a15050565b600080611bc9600b5484611c3d90919063ffffffff16565b905060006009541415611be25780600b81905550611c33565b6000611bf960095483611cc590919063ffffffff16565b9050611c1060095483611d0f90919063ffffffff16565b600b81905550611c2b81600a54611c3d90919063ffffffff16565b600a81905550505b6001915050919050565b600080828401905083811015611cbb576040517f08c379a000000000000000000000000000000000000000000000000000000000815260040180806020018281038252601b8152602001807f536166654d6174683a206164646974696f6e206f766572666c6f77000000000081525060200191505060405180910390fd5b8091505092915050565b6000611d0783836040518060400160405280601a81526020017f536166654d6174683a206469766973696f6e206279207a65726f000000000000815250611e29565b905092915050565b6000611d5183836040518060400160405280601881526020017f536166654d6174683a206d6f64756c6f206279207a65726f0000000000000000815250611eef565b905092915050565b600080831415611d6c5760009050611dd9565b6000828402905082848281611d7d57fe5b0414611dd4576040517f08c379a00000000000000000000000000000000000000000000000000000000081526004018080602001828103825260218152602001806120bd6021913960400191505060405180910390fd5b809150505b92915050565b6000611e2183836040518060400160405280601e81526020017f536166654d6174683a207375627472616374696f6e206f766572666c6f770000815250611fb0565b905092915050565b60008083118290611ed5576040517f08c379a00000000000000000000000000000000000000000000000000000000081526004018080602001828103825283818151815260200191508051906020019080838360005b83811015611e9a578082015181840152602081019050611e7f565b50505050905090810190601f168015611ec75780820380516001836020036101000a031916815260200191505b509250505060405180910390fd5b506000838581611ee157fe5b049050809150509392505050565b6000808314158290611f9c576040517f08c379a00000000000000000000000000000000000000000000000000000000081526004018080602001828103825283818151815260200191508051906020019080838360005b83811015611f61578082015181840152602081019050611f46565b50505050905090810190601f168015611f8e5780820380516001836020036101000a031916815260200191505b509250505060405180910390fd5b50828481611fa657fe5b0690509392505050565b600083831115829061205d576040517f08c379a00000000000000000000000000000000000000000000000000000000081526004018080602001828103825283818151815260200191508051906020019080838360005b83811015612022578082015181840152602081019050612007565b50505050905090810190601f16801561204f5780820380516001836020036101000a031916815260200191505b509250505060405180910390fd5b506000838503905080915050939250505056fe5769746864726177616c206578636565647320616d6f756e74206f6620746f6b656e73206c6f636b6564416c6c6f636174696f6e206578636565647320617661696c61626c652066756e6473536166654d6174683a206d756c7469706c69636174696f6e206f766572666c6f77a2646970667358221220ff2f73bfa194b94f7f2836af69d3214d9fe5890d0fc1bd8d7fa274496e9dd43a64736f6c6343000604003360806040523480156200001157600080fd5b5060405162001ac238038062001ac2833981810160405260808110156200003757600080fd5b81019080805160405193929190846401000000008211156200005857600080fd5b838201915060208201858111156200006f57600080fd5b82518660018202830111640100000000821117156200008d57600080fd5b8083526020830192505050908051906020019080838360005b83811015620000c3578082015181840152602081019050620000a6565b50505050905090810190601f168015620000f15780820380516001836020036101000a031916815260200191505b50604052602001805160405193929190846401000000008211156200011557600080fd5b838201915060208201858111156200012c57600080fd5b82518660018202830111640100000000821117156200014a57600080fd5b8083526020830192505050908051906020019080838360005b838110156200018057808201518184015260208101905062000163565b50505050905090810190601f168015620001ae5780820380516001836020036101000a031916815260200191505b50604052602001805190602001909291908051906020019092919050505083838160039080519060200190620001e692919062000596565b508060049080519060200190620001ff92919062000596565b506012600560006101000a81548160ff021916908360ff1602179055505050600073ffffffffffffffffffffffffffffffffffffffff168173ffffffffffffffffffffffffffffffffffffffff161415620002c2576040517f08c379a00000000000000000000000000000000000000000000000000000000081526004018080602001828103825260158152602001807f4f776e6572206d75737420626520646566696e6564000000000000000000000081525060200191505060405180910390fd5b6000821115620002df57620002de81836200032a60201b60201c565b5b80600560016101000a81548173ffffffffffffffffffffffffffffffffffffffff021916908373ffffffffffffffffffffffffffffffffffffffff1602179055505050505062000645565b600073ffffffffffffffffffffffffffffffffffffffff168273ffffffffffffffffffffffffffffffffffffffff161415620003ce576040517f08c379a000000000000000000000000000000000000000000000000000000000815260040180806020018281038252601f8152602001807f45524332303a206d696e7420746f20746865207a65726f20616464726573730081525060200191505060405180910390fd5b620003e2600083836200050860201b60201c565b620003fe816002546200050d60201b620010e21790919060201c565b6002819055506200045c816000808573ffffffffffffffffffffffffffffffffffffffff1673ffffffffffffffffffffffffffffffffffffffff168152602001908152602001600020546200050d60201b620010e21790919060201c565b6000808473ffffffffffffffffffffffffffffffffffffffff1673ffffffffffffffffffffffffffffffffffffffff168152602001908152602001600020819055508173ffffffffffffffffffffffffffffffffffffffff16600073ffffffffffffffffffffffffffffffffffffffff167fddf252ad1be2c89b69c2b068fc378daa952ba7f163c4a11628f55a4df523b3ef836040518082815260200191505060405180910390a35050565b505050565b6000808284019050838110156200058c576040517f08c379a000000000000000000000000000000000000000000000000000000000815260040180806020018281038252601b8152602001807f536166654d6174683a206164646974696f6e206f766572666c6f77000000000081525060200191505060405180910390fd5b8091505092915050565b828054600181600116156101000203166002900490600052602060002090601f016020900481019282601f10620005d957805160ff19168380011785556200060a565b828001600101855582156200060a579182015b8281111562000609578251825591602001919060010190620005ec565b5b5090506200061991906200061d565b5090565b6200064291905b808211156200063e57600081600090555060010162000624565b5090565b90565b61146d80620006556000396000f3fe608060405234801561001057600080fd5b50600436106100cf5760003560e01c806340c10f191161008c578063a457c2d711610066578063a457c2d714610414578063a9059cbb1461047a578063b2bdfa7b146104e0578063dd62ed3e1461052a576100cf565b806340c10f19146102eb57806370a082311461033957806395d89b4114610391576100cf565b806306fdde03146100d4578063095ea7b31461015757806318160ddd146101bd57806323b872dd146101db578063313ce567146102615780633950935114610285575b600080fd5b6100dc6105a2565b6040518080602001828103825283818151815260200191508051906020019080838360005b8381101561011c578082015181840152602081019050610101565b50505050905090810190601f1680156101495780820380516001836020036101000a031916815260200191505b509250505060405180910390f35b6101a36004803603604081101561016d57600080fd5b81019080803573ffffffffffffffffffffffffffffffffffffffff16906020019092919080359060200190929190505050610644565b604051808215151515815260200191505060405180910390f35b6101c5610662565b6040518082815260200191505060405180910390f35b610247600480360360608110156101f157600080fd5b81019080803573ffffffffffffffffffffffffffffffffffffffff169060200190929190803573ffffffffffffffffffffffffffffffffffffffff1690602001909291908035906020019092919050505061066c565b604051808215151515815260200191505060405180910390f35b610269610745565b604051808260ff1660ff16815260200191505060405180910390f35b6102d16004803603604081101561029b57600080fd5b81019080803573ffffffffffffffffffffffffffffffffffffffff1690602001909291908035906020019092919050505061075c565b604051808215151515815260200191505060405180910390f35b6103376004803603604081101561030157600080fd5b81019080803573ffffffffffffffffffffffffffffffffffffffff1690602001909291908035906020019092919050505061080f565b005b61037b6004803603602081101561034f57600080fd5b81019080803573ffffffffffffffffffffffffffffffffffffffff1690602001909291905050506108e0565b6040518082815260200191505060405180910390f35b610399610928565b6040518080602001828103825283818151815260200191508051906020019080838360005b838110156103d95780820151818401526020810190506103be565b50505050905090810190601f1680156104065780820380516001836020036101000a031916815260200191505b509250505060405180910390f35b6104606004803603604081101561042a57600080fd5b81019080803573ffffffffffffffffffffffffffffffffffffffff169060200190929190803590602001909291905050506109ca565b604051808215151515815260200191505060405180910390f35b6104c66004803603604081101561049057600080fd5b81019080803573ffffffffffffffffffffffffffffffffffffffff16906020019092919080359060200190929190505050610a97565b604051808215151515815260200191505060405180910390f35b6104e8610ab5565b604051808273ffffffffffffffffffffffffffffffffffffffff1673ffffffffffffffffffffffffffffffffffffffff16815260200191505060405180910390f35b61058c6004803603604081101561054057600080fd5b81019080803573ffffffffffffffffffffffffffffffffffffffff169060200190929190803573ffffffffffffffffffffffffffffffffffffffff169060200190929190505050610adb565b6040518082815260200191505060405180910390f35b606060038054600181600116156101000203166002900480601f01602080910402602001604051908101604052809291908181526020018280546001816001161561010002031660029004801561063a5780601f1061060f5761010080835404028352916020019161063a565b820191906000526020600020905b81548152906001019060200180831161061d57829003601f168201915b5050505050905090565b6000610658610651610b62565b8484610b6a565b6001905092915050565b6000600254905090565b6000610679848484610d61565b61073a84610685610b62565b610735856040518060600160405280602881526020016113a260289139600160008b73ffffffffffffffffffffffffffffffffffffffff1673ffffffffffffffffffffffffffffffffffffffff16815260200190815260200160002060006106eb610b62565b73ffffffffffffffffffffffffffffffffffffffff1673ffffffffffffffffffffffffffffffffffffffff168152602001908152602001600020546110229092919063ffffffff16565b610b6a565b600190509392505050565b6000600560009054906101000a900460ff16905090565b6000610805610769610b62565b84610800856001600061077a610b62565b73ffffffffffffffffffffffffffffffffffffffff1673ffffffffffffffffffffffffffffffffffffffff16815260200190815260200160002060008973ffffffffffffffffffffffffffffffffffffffff1673ffffffffffffffffffffffffffffffffffffffff168152602001908152602001600020546110e290919063ffffffff16565b610b6a565b6001905092915050565b600560019054906101000a900473ffffffffffffffffffffffffffffffffffffffff1673ffffffffffffffffffffffffffffffffffffffff163373ffffffffffffffffffffffffffffffffffffffff16146108d2576040517f08c379a000000000000000000000000000000000000000000000000000000000815260040180806020018281038252600d8152602001807f4163636573732064656e6965640000000000000000000000000000000000000081525060200191505060405180910390fd5b6108dc828261116a565b5050565b60008060008373ffffffffffffffffffffffffffffffffffffffff1673ffffffffffffffffffffffffffffffffffffffff168152602001908152602001600020549050919050565b606060048054600181600116156101000203166002900480601f0160208091040260200160405190810160405280929190818152602001828054600181600116156101000203166002900480156109c05780601f10610995576101008083540402835291602001916109c0565b820191906000526020600020905b8154815290600101906020018083116109a357829003601f168201915b5050505050905090565b6000610a8d6109d7610b62565b84610a88856040518060600160405280602581526020016114136025913960016000610a01610b62565b73ffffffffffffffffffffffffffffffffffffffff1673ffffffffffffffffffffffffffffffffffffffff16815260200190815260200160002060008a73ffffffffffffffffffffffffffffffffffffffff1673ffffffffffffffffffffffffffffffffffffffff168152602001908152602001600020546110229092919063ffffffff16565b610b6a565b6001905092915050565b6000610aab610aa4610b62565b8484610d61565b6001905092915050565b600560019054906101000a900473ffffffffffffffffffffffffffffffffffffffff1681565b6000600160008473ffffffffffffffffffffffffffffffffffffffff1673ffffffffffffffffffffffffffffffffffffffff16815260200190815260200160002060008373ffffffffffffffffffffffffffffffffffffffff1673ffffffffffffffffffffffffffffffffffffffff16815260200190815260200160002054905092915050565b600033905090565b600073ffffffffffffffffffffffffffffffffffffffff168373ffffffffffffffffffffffffffffffffffffffff161415610bf0576040517f08c379a00000000000000000000000000000000000000000000000000000000081526004018080602001828103825260248152602001806113ef6024913960400191505060405180910390fd5b600073ffffffffffffffffffffffffffffffffffffffff168273ffffffffffffffffffffffffffffffffffffffff161415610c76576040517f08c379a000000000000000000000000000000000000000000000000000000000815260040180806020018281038252602281526020018061135a6022913960400191505060405180910390fd5b80600160008573ffffffffffffffffffffffffffffffffffffffff1673ffffffffffffffffffffffffffffffffffffffff16815260200190815260200160002060008473ffffffffffffffffffffffffffffffffffffffff1673ffffffffffffffffffffffffffffffffffffffff168152602001908152602001600020819055508173ffffffffffffffffffffffffffffffffffffffff168373ffffffffffffffffffffffffffffffffffffffff167f8c5be1e5ebec7d5bd14f71427d1e84f3dd0314c0f7b2291e5b200ac8c7c3b925836040518082815260200191505060405180910390a3505050565b600073ffffffffffffffffffffffffffffffffffffffff168373ffffffffffffffffffffffffffffffffffffffff161415610de7576040517f08c379a00000000000000000000000000000000000000000000000000000000081526004018080602001828103825260258152602001806113ca6025913960400191505060405180910390fd5b600073ffffffffffffffffffffffffffffffffffffffff168273ffffffffffffffffffffffffffffffffffffffff161415610e6d576040517f08c379a00000000000000000000000000000000000000000000000000000000081526004018080602001828103825260238152602001806113376023913960400191505060405180910390fd5b610e78838383611331565b610ee38160405180606001604052806026815260200161137c602691396000808773ffffffffffffffffffffffffffffffffffffffff1673ffffffffffffffffffffffffffffffffffffffff168152602001908152602001600020546110229092919063ffffffff16565b6000808573ffffffffffffffffffffffffffffffffffffffff1673ffffffffffffffffffffffffffffffffffffffff16815260200190815260200160002081905550610f76816000808573ffffffffffffffffffffffffffffffffffffffff1673ffffffffffffffffffffffffffffffffffffffff168152602001908152602001600020546110e290919063ffffffff16565b6000808473ffffffffffffffffffffffffffffffffffffffff1673ffffffffffffffffffffffffffffffffffffffff168152602001908152602001600020819055508173ffffffffffffffffffffffffffffffffffffffff168373ffffffffffffffffffffffffffffffffffffffff167fddf252ad1be2c89b69c2b068fc378daa952ba7f163c4a11628f55a4df523b3ef836040518082815260200191505060405180910390a3505050565b60008383111582906110cf576040517f08c379a00000000000000000000000000000000000000000000000000000000081526004018080602001828103825283818151815260200191508051906020019080838360005b83811015611094578082015181840152602081019050611079565b50505050905090810190601f1680156110c15780820380516001836020036101000a031916815260200191505b509250505060405180910390fd5b5060008385039050809150509392505050565b600080828401905083811015611160576040517f08c379a000000000000000000000000000000000000000000000000000000000815260040180806020018281038252601b8152602001807f536166654d6174683a206164646974696f6e206f766572666c6f77000000000081525060200191505060405180910390fd5b8091505092915050565b600073ffffffffffffffffffffffffffffffffffffffff168273ffffffffffffffffffffffffffffffffffffffff16141561120d576040517f08c379a000000000000000000000000000000000000000000000000000000000815260040180806020018281038252601f8152602001807f45524332303a206d696e7420746f20746865207a65726f20616464726573730081525060200191505060405180910390fd5b61121960008383611331565b61122e816002546110e290919063ffffffff16565b600281905550611285816000808573ffffffffffffffffffffffffffffffffffffffff1673ffffffffffffffffffffffffffffffffffffffff168152602001908152602001600020546110e290919063ffffffff16565b6000808473ffffffffffffffffffffffffffffffffffffffff1673ffffffffffffffffffffffffffffffffffffffff168152602001908152602001600020819055508173ffffffffffffffffffffffffffffffffffffffff16600073ffffffffffffffffffffffffffffffffffffffff167fddf252ad1be2c89b69c2b068fc378daa952ba7f163c4a11628f55a4df523b3ef836040518082815260200191505060405180910390a35050565b50505056fe45524332303a207472616e7366657220746f20746865207a65726f206164647265737345524332303a20617070726f766520746f20746865207a65726f206164647265737345524332303a207472616e7366657220616d6f756e7420657863656564732062616c616e636545524332303a207472616e7366657220616d6f756e74206578636565647320616c6c6f77616e636545524332303a207472616e736665722066726f6d20746865207a65726f206164647265737345524332303a20617070726f76652066726f6d20746865207a65726f206164647265737345524332303a2064656372656173656420616c6c6f77616e63652062656c6f77207a65726fa2646970667358221220dd26cf25107967a328aa45ecf6faffc239e267fc8b99d0b8e9eb53ee3e70bac064736f6c63430006040033",
  "source": "pragma solidity ^0.6.4;\n\nimport \"./TokenTemplate.sol\";\nimport \"./BondingCurve.sol\";\nimport \"@openzeppelin/contracts/math/SafeMath.sol\";\n\n/**\n * @dev Implementation of a DAO (Decentralized Autonomous Organization) for the CommonsHood app.\n *\n * This implementation consists in an organization that have an owner and various members with\n * various roles. The organization is capable of issuing tokens (ERC20 compliant) or Crowdsales.\n * Tokens can be transfered to others accounts or others DAOs. Only members with a role grater\n * than or equal to ROLE_ADMIN can issue new tokens and crowdsales.\n *\n * Users can join the DAO with the role ROLE_MEMBER. They can be promoted to higher roles only by a\n * ROLE_ADMIN or a ROLE_OWNER. All writing operations can be performed only by users with ROLE_ADMIN\n * or higher.\n */\ncontract CcDAO {\n    using SafeMath for uint256;\n    string public name;\n    address public creator;\n    TokenTemplate public RhizomeRewards;\n\n    mapping(address => uint) roles;\n    mapping(address => uint) allocations;\n    mapping(address => uint) disbursed;\n    mapping(address => uint) validated;\n\n    uint256 public constant ELIGIBLE_UNIT = 10 ** 9;\n    mapping(address => uint256) internal _stake;\n    mapping(address => uint256) internal _stakeRemainder;\n    uint256 internal _stakeTotal;\n    uint256 internal _rewardTotal;\n    uint256 internal _rewardRemainder;\n    mapping(address => int256) _rewardOffset;\n\n    uint internal constant ROLE_FACILITATOR = 40;\n    uint internal constant ROLE_RECIPIENT = 30;\n    uint internal constant ROLE_PROJECT = 20;\n    uint internal constant ROLE_NONE = 0;\n\n    string internal constant INSUFFICIENT_PRIVILEGES = \"Action requires admin privileges\";\n    string internal constant INVALID_TARGET = \"Amount must be nonzero\";\n    string internal constant INSUFFICIENT_FUNDS = \"Allocation exceeds available funds\";\n    string internal constant INSUFFICIENT_TOKENS = \"Withdrawal exceeds amount of tokens locked\";\n    string internal constant NOT_FOUND = \"Entity not found\";\n\n    event Project(address _project, uint _amount);\n    event Allocation(address _project, uint _amount);\n\n    constructor(\n        string memory _name,\n        address _creator\n    ) public {\n        bytes memory testName = bytes(_name);\n        require(testName.length > 0, \"DAO Name cannot be empty\");\n\n        name = _name;\n        creator = _creator;\n\n        _stakeTotal = 0;\n        _rewardTotal = 0;\n        _rewardRemainder = 0;\n\n        roles[creator] = ROLE_FACILITATOR;\n\n        RhizomeRewards = new TokenTemplate('Rhizome', 'RHR', 0, msg.sender);\n    }\n\n    fallback() external {}\n\n    function addProject(address _project, uint256 amount) \n    public {\n        require(roles[msg.sender] == ROLE_FACILITATOR, INSUFFICIENT_PRIVILEGES);\n        require(amount <= address(this).balance, INSUFFICIENT_FUNDS);\n        roles[_project] = ROLE_PROJECT;\n        allocations[_project] = amount;\n        emit Project(_project, amount);\n    }\n\n    function updateAllocation(address _project, uint256 amount) public {\n        require(roles[msg.sender] == ROLE_FACILITATOR, INSUFFICIENT_PRIVILEGES);\n        require(amount <= address(this).balance, INSUFFICIENT_FUNDS);\n        allocations[_project] = amount;\n    }\n\n    function allocate(address payable _project) public {\n        uint256 amount = allocations[_project];\n        require(amount <= address(this).balance, INSUFFICIENT_FUNDS);\n        _project.transfer(amount);\n        disbursed[_project] = amount;\n        delete(allocations[_project]);\n        roles[_project] = ROLE_RECIPIENT;\n        emit Allocation(_project, amount);\n    }\n\n    function validate(address _project)\n    external {\n        require(roles[_project] == ROLE_RECIPIENT, \"Invalid target\");\n        uint256 rewards = disbursed[_project];\n        distribute(rewards);\n        validated[_project] = disbursed[_project];\n        delete(disbursed[_project]);\n    }\n\n    function kickProject(address _project) public {\n        require(roles[_project] > ROLE_NONE, NOT_FOUND);\n        require(roles[_project] < ROLE_RECIPIENT, \"Project has already been funded\");\n        require(roles[msg.sender] > ROLE_PROJECT, INSUFFICIENT_PRIVILEGES);\n        delete(roles[_project]);\n        delete(allocations[_project]);\n    }\n\n    function addFacilitator(address _admin) public {\n        roles[_admin] = ROLE_FACILITATOR;\n    }\n\n    function deposit(address staker, uint256 tokens) public returns (bool success) {\n        uint256 _tokensToAdd = tokens.add(_stakeRemainder[staker]);\n\n        uint256 _eligibleUnitsToAdd = _tokensToAdd.div(ELIGIBLE_UNIT);\n\n        // update the new remainder for this address\n        _stakeRemainder[msg.sender] = _tokensToAdd.mod(ELIGIBLE_UNIT);\n\n        // set the current stake for this address\n        _stake[staker] = _stake[staker].add(_eligibleUnitsToAdd);\n\n        // update total eligible stake units\n        _stakeTotal = _stakeTotal.add(_eligibleUnitsToAdd);\n\n        // update reward offset\n        _rewardOffset[staker] += (int256)(_rewardTotal * _eligibleUnitsToAdd);\n\n        return true;\n    }\n\n    /// @notice Distribute tokens pro rata to all stakers.\n    function distribute(uint256 rewards) internal returns (bool success) {\n        /////\n        // add past distribution remainder\n        uint256 _amountToDistribute = rewards.add(_rewardRemainder);\n\n        if (_stakeTotal == 0) {\n            _rewardRemainder = _amountToDistribute;\n        } else {\n            // determine rewards per eligible stake\n            uint256 _ratio = _amountToDistribute.div(_stakeTotal);\n\n            // carry on remainder\n            _rewardRemainder = _amountToDistribute.mod(_stakeTotal);\n\n            // increase total rewards per stake unit\n            _rewardTotal = _rewardTotal.add(_ratio);\n        }\n        return true;\n    }\n\n    /// @notice Withdraw accumulated reward for the staker address.\n    function withdrawReward() public {\n        uint256 _reward = getReward(msg.sender);\n\n        // refresh reward offset (so a new call to getReward returns 0)\n        _rewardOffset[msg.sender] = (int256)(_rewardTotal.mul(_stake[msg.sender]));\n\n        RhizomeRewards.mint(msg.sender, _reward);\n    }\n\n    /// @notice Withdraw stake for the staker address\n    function withdrawStake(address staker, uint256 tokens) public returns (bool) {\n        uint256 _currentStake = getStake(staker);\n\n        require(tokens <= _currentStake, INSUFFICIENT_TOKENS);\n\n        // update stake and remainder for this address\n        uint256 _newStake = _currentStake.sub(tokens);\n\n        _stakeRemainder[staker] = _newStake.mod(ELIGIBLE_UNIT);\n\n        uint256 _eligibleUnitsDelta = _stake[staker].sub(_newStake.div(ELIGIBLE_UNIT));\n\n        _stake[staker] = _stake[staker].sub(_eligibleUnitsDelta);\n\n        // update total stake\n        _stakeTotal = _stakeTotal.sub(_eligibleUnitsDelta);\n\n        // update reward offset\n        _rewardOffset[staker] -= (int256)(_rewardTotal.mul(_eligibleUnitsDelta));\n\n        return true;\n    }\n\n    /// @notice Withdraw stake for the staker address\n    function withdrawAllStake(address staker) public returns (bool) {\n        uint256 _currentStake = getStake(staker);\n        return withdrawStake(staker, _currentStake);\n    }\n\n    ///\n    /// READ ONLY\n    ///\n\n    /// @notice Read total stake.\n    function getStakeTotal() public view returns (uint256) {\n        return _stakeTotal.mul(ELIGIBLE_UNIT);\n    }\n\n    /// @notice Read current stake for address.\n    function getStake(address staker) public view returns (uint256 tokens) {\n        tokens = (_stake[staker].mul(ELIGIBLE_UNIT)).add(_stakeRemainder[staker]);\n\n        return tokens;\n    }\n\n    /// @notice Read current accumulated reward for address.\n    function getReward(address staker) public view returns (uint256 tokens) {\n        int256 _tokens = ((int256)(_stake[staker].mul(_rewardTotal)) - _rewardOffset[staker]);\n\n        tokens = (uint256)(_tokens);\n\n        return tokens;\n    }\n}",
  "sourcePath": "/home/armitage/code/rhizome-factory/contracts/CcDAO.sol",
  "compiler": {
    "name": "solc",
    "version": "0.6.4+commit.1dca32f3.Emscripten.clang"
  },
  "schemaVersion": "3.1.0",
  "updatedAt": "2020-04-26T12:37:42.357Z",
  "devdoc": {
    "details": "Implementation of a DAO (Decentralized Autonomous Organization) for the CommonsHood app. * This implementation consists in an organization that have an owner and various members with various roles. The organization is capable of issuing tokens (ERC20 compliant) or Crowdsales. Tokens can be transfered to others accounts or others DAOs. Only members with a role grater than or equal to ROLE_ADMIN can issue new tokens and crowdsales. * Users can join the DAO with the role ROLE_MEMBER. They can be promoted to higher roles only by a ROLE_ADMIN or a ROLE_OWNER. All writing operations can be performed only by users with ROLE_ADMIN or higher.",
    "methods": {}
  },
  "userdoc": {
    "methods": {
      "getReward(address)": {
        "notice": "Read current accumulated reward for address."
      },
      "getStake(address)": {
        "notice": "Read current stake for address."
      },
      "getStakeTotal()": {
        "notice": " READ ONLY  Read total stake."
      },
      "withdrawAllStake(address)": {
        "notice": "Withdraw stake for the staker address"
      },
      "withdrawReward()": {
        "notice": "Withdraw accumulated reward for the staker address."
      },
      "withdrawStake(address,uint256)": {
        "notice": "Withdraw stake for the staker address"
      }
    }
  }
}